{
  "_format": "hh-sol-artifact-1",
  "contractName": "PumpFunClone",
  "sourceName": "contracts/Pump.sol",
  "abi": [
    {
      "inputs": [],
      "stateMutability": "nonpayable",
      "type": "constructor"
    },
    {
      "inputs": [
        {
          "internalType": "address",
          "name": "owner",
          "type": "address"
        }
      ],
      "name": "OwnableInvalidOwner",
      "type": "error"
    },
    {
      "inputs": [
        {
          "internalType": "address",
          "name": "account",
          "type": "address"
        }
      ],
      "name": "OwnableUnauthorizedAccount",
      "type": "error"
    },
    {
      "inputs": [],
      "name": "ReentrancyGuardReentrantCall",
      "type": "error"
    },
    {
      "anonymous": false,
      "inputs": [
        {
          "indexed": true,
          "internalType": "address",
          "name": "poolAddress",
          "type": "address"
        },
        {
          "indexed": false,
          "internalType": "uint256",
          "name": "liquidity",
          "type": "uint256"
        }
      ],
      "name": "LPBurned",
      "type": "event"
    },
    {
      "anonymous": false,
      "inputs": [
        {
          "indexed": true,
          "internalType": "address",
          "name": "tokenAddress",
          "type": "address"
        },
        {
          "indexed": false,
          "internalType": "address",
          "name": "poolAddress",
          "type": "address"
        }
      ],
      "name": "LiquidityPoolCreated",
      "type": "event"
    },
    {
      "anonymous": false,
      "inputs": [
        {
          "indexed": true,
          "internalType": "address",
          "name": "tokenAddress",
          "type": "address"
        },
        {
          "indexed": false,
          "internalType": "uint256",
          "name": "tokenAmount",
          "type": "uint256"
        },
        {
          "indexed": false,
          "internalType": "uint256",
          "name": "ethAmount",
          "type": "uint256"
        },
        {
          "indexed": false,
          "internalType": "uint256",
          "name": "liquidity",
          "type": "uint256"
        }
      ],
      "name": "LiquidityProvided",
      "type": "event"
    },
    {
      "anonymous": false,
      "inputs": [
        {
          "indexed": true,
          "internalType": "address",
          "name": "previousOwner",
          "type": "address"
        },
        {
          "indexed": true,
          "internalType": "address",
          "name": "newOwner",
          "type": "address"
        }
      ],
      "name": "OwnershipTransferred",
      "type": "event"
    },
    {
      "anonymous": false,
      "inputs": [
        {
          "indexed": true,
          "internalType": "address",
          "name": "creator",
          "type": "address"
        },
        {
          "indexed": false,
          "internalType": "address",
          "name": "tokenAddress",
          "type": "address"
        },
        {
          "indexed": false,
          "internalType": "string",
          "name": "name",
          "type": "string"
        },
        {
          "indexed": false,
          "internalType": "string",
          "name": "symbol",
          "type": "string"
        }
      ],
      "name": "TokenCreated",
      "type": "event"
    },
    {
      "anonymous": false,
      "inputs": [
        {
          "indexed": true,
          "internalType": "address",
          "name": "buyer",
          "type": "address"
        },
        {
          "indexed": false,
          "internalType": "address",
          "name": "tokenAddress",
          "type": "address"
        },
        {
          "indexed": false,
          "internalType": "uint256",
          "name": "amount",
          "type": "uint256"
        },
        {
          "indexed": false,
          "internalType": "uint256",
          "name": "ethSpent",
          "type": "uint256"
        }
      ],
      "name": "TokenPurchased",
      "type": "event"
    },
    {
      "inputs": [],
      "name": "INITIAL_PRICE",
      "outputs": [
        {
          "internalType": "uint256",
          "name": "",
          "type": "uint256"
        }
      ],
      "stateMutability": "view",
      "type": "function"
    },
    {
      "inputs": [],
      "name": "K",
      "outputs": [
        {
          "internalType": "uint256",
          "name": "",
          "type": "uint256"
        }
      ],
      "stateMutability": "view",
      "type": "function"
    },
    {
      "inputs": [
        {
          "internalType": "uint256",
          "name": "",
          "type": "uint256"
        }
      ],
      "name": "PumpTokenAddresses",
      "outputs": [
        {
          "internalType": "address",
          "name": "",
          "type": "address"
        }
      ],
      "stateMutability": "view",
      "type": "function"
    },
    {
      "inputs": [
        {
          "internalType": "address",
          "name": "",
          "type": "address"
        }
      ],
      "name": "addressToPumpTokenMapping",
      "outputs": [
        {
          "internalType": "string",
          "name": "name",
          "type": "string"
        },
        {
          "internalType": "string",
          "name": "symbol",
          "type": "string"
        },
        {
          "internalType": "string",
          "name": "description",
          "type": "string"
        },
        {
          "internalType": "string",
          "name": "tokenImageUrl",
          "type": "string"
        },
        {
          "internalType": "uint256",
          "name": "fundingRaised",
          "type": "uint256"
        },
        {
          "internalType": "address",
          "name": "tokenAddress",
          "type": "address"
        },
        {
          "internalType": "address",
          "name": "creatorAddress",
          "type": "address"
        }
      ],
      "stateMutability": "view",
      "type": "function"
    },
    {
      "inputs": [
        {
          "internalType": "address",
          "name": "tokenAddress",
          "type": "address"
        },
        {
          "internalType": "uint256",
          "name": "tokenQty",
          "type": "uint256"
        }
      ],
      "name": "buyToken",
      "outputs": [
        {
          "internalType": "bool",
          "name": "",
          "type": "bool"
        }
      ],
      "stateMutability": "payable",
      "type": "function"
    },
    {
      "inputs": [
        {
          "internalType": "uint256",
          "name": "currentSupply",
          "type": "uint256"
        },
        {
          "internalType": "uint256",
          "name": "tokensToBuy",
          "type": "uint256"
        }
      ],
      "name": "calculateCost",
      "outputs": [
        {
          "internalType": "uint256",
          "name": "",
          "type": "uint256"
        }
      ],
      "stateMutability": "view",
      "type": "function"
    },
    {
      "inputs": [
        {
          "internalType": "string",
          "name": "name",
          "type": "string"
        },
        {
          "internalType": "string",
          "name": "symbol",
          "type": "string"
        },
        {
          "internalType": "string",
          "name": "imageUrl",
          "type": "string"
        },
        {
          "internalType": "string",
          "name": "description",
          "type": "string"
        }
      ],
      "name": "createToken",
      "outputs": [
        {
          "internalType": "address",
          "name": "",
          "type": "address"
        }
      ],
      "stateMutability": "payable",
      "type": "function"
    },
    {
      "inputs": [],
      "name": "getAllTokens",
      "outputs": [
        {
          "components": [
            {
              "internalType": "string",
              "name": "name",
              "type": "string"
            },
            {
              "internalType": "string",
              "name": "symbol",
              "type": "string"
            },
            {
              "internalType": "string",
              "name": "description",
              "type": "string"
            },
            {
              "internalType": "string",
              "name": "tokenImageUrl",
              "type": "string"
            },
            {
              "internalType": "uint256",
              "name": "fundingRaised",
              "type": "uint256"
            },
            {
              "internalType": "address",
              "name": "tokenAddress",
              "type": "address"
            },
            {
              "internalType": "address",
              "name": "creatorAddress",
              "type": "address"
            }
          ],
          "internalType": "struct PumpFunClone.PumpToken[]",
          "name": "",
          "type": "tuple[]"
        }
      ],
      "stateMutability": "view",
      "type": "function"
    },
    {
      "inputs": [],
      "name": "owner",
      "outputs": [
        {
          "internalType": "address",
          "name": "",
          "type": "address"
        }
      ],
      "stateMutability": "view",
      "type": "function"
    },
    {
      "inputs": [],
      "name": "renounceOwnership",
      "outputs": [],
      "stateMutability": "nonpayable",
      "type": "function"
    },
    {
      "inputs": [
        {
          "internalType": "address",
          "name": "newOwner",
          "type": "address"
        }
      ],
      "name": "transferOwnership",
      "outputs": [],
      "stateMutability": "nonpayable",
      "type": "function"
    }
  ],
  "bytecode": "0x6080604052651b48eb57e000600455348015601957600080fd5b5060016000553380604457604051631e4fbdf760e01b81526000600482015260240160405180910390fd5b604b816050565b5060a2565b600180546001600160a01b038381166001600160a01b0319831681179093556040519116919082907f8be0079c531659141344cd1fd0a4f28419497f9722a3daafe3b4186f6b6457e090600090a35050565b612be6806100b16000396000f3fe60806040526004361061009c5760003560e01c80637c5e2795116100645780637c5e2795146101715780638da5cb5b14610195578063a0769659146101b3578063a932492f146101c6578063ce394696146101e1578063f2fde38b1461020157600080fd5b80632a5c792a146100a15780635bc6c571146100cc5780635f734ce6146100ff57806368f8fc1014610137578063715018a61461015a575b600080fd5b3480156100ad57600080fd5b506100b6610221565b6040516100c3919061173e565b60405180910390f35b3480156100d857600080fd5b506100ec6100e736600461184d565b6105bd565b6040516100c39796959493929190611871565b34801561010b57600080fd5b5061011f61011a3660046118e8565b610824565b6040516001600160a01b0390911681526020016100c3565b61014a610145366004611901565b61084e565b60405190151581526020016100c3565b34801561016657600080fd5b5061016f610eea565b005b34801561017d57600080fd5b5061018760045481565b6040519081526020016100c3565b3480156101a157600080fd5b506001546001600160a01b031661011f565b61011f6101c13660046119d0565b610efe565b3480156101d257600080fd5b50610187661c6bf52634000081565b3480156101ed57600080fd5b506101876101fc366004611a7d565b61113e565b34801561020d57600080fd5b5061016f61021c36600461184d565b6111fc565b60025460609060009067ffffffffffffffff8111156102425761024261192d565b6040519080825280602002602001820160405280156102c557816020015b6102b26040518060e00160405280606081526020016060815260200160608152602001606081526020016000815260200160006001600160a01b0316815260200160006001600160a01b031681525090565b8152602001906001900390816102605790505b50905060005b6002548110156105b75760036000600283815481106102ec576102ec611a9f565b60009182526020808320909101546001600160a01b031683528201929092526040908101909120815160e0810190925280548290829061032b90611ab5565b80601f016020809104026020016040519081016040528092919081815260200182805461035790611ab5565b80156103a45780601f10610379576101008083540402835291602001916103a4565b820191906000526020600020905b81548152906001019060200180831161038757829003601f168201915b505050505081526020016001820180546103bd90611ab5565b80601f01602080910402602001604051908101604052809291908181526020018280546103e990611ab5565b80156104365780601f1061040b57610100808354040283529160200191610436565b820191906000526020600020905b81548152906001019060200180831161041957829003601f168201915b5050505050815260200160028201805461044f90611ab5565b80601f016020809104026020016040519081016040528092919081815260200182805461047b90611ab5565b80156104c85780601f1061049d576101008083540402835291602001916104c8565b820191906000526020600020905b8154815290600101906020018083116104ab57829003601f168201915b505050505081526020016003820180546104e190611ab5565b80601f016020809104026020016040519081016040528092919081815260200182805461050d90611ab5565b801561055a5780601f1061052f5761010080835404028352916020019161055a565b820191906000526020600020905b81548152906001019060200180831161053d57829003601f168201915b50505091835250506004820154602082015260058201546001600160a01b03908116604083015260069092015490911660609091015282518390839081106105a4576105a4611a9f565b60209081029190910101526001016102cb565b50919050565b6003602052600090815260409020805481906105d890611ab5565b80601f016020809104026020016040519081016040528092919081815260200182805461060490611ab5565b80156106515780601f1061062657610100808354040283529160200191610651565b820191906000526020600020905b81548152906001019060200180831161063457829003601f168201915b50505050509080600101805461066690611ab5565b80601f016020809104026020016040519081016040528092919081815260200182805461069290611ab5565b80156106df5780601f106106b4576101008083540402835291602001916106df565b820191906000526020600020905b8154815290600101906020018083116106c257829003601f168201915b5050505050908060020180546106f490611ab5565b80601f016020809104026020016040519081016040528092919081815260200182805461072090611ab5565b801561076d5780601f106107425761010080835404028352916020019161076d565b820191906000526020600020905b81548152906001019060200180831161075057829003601f168201915b50505050509080600301805461078290611ab5565b80601f01602080910402602001604051908101604052809291908181526020018280546107ae90611ab5565b80156107fb5780601f106107d0576101008083540402835291602001916107fb565b820191906000526020600020905b8154815290600101906020018083116107de57829003601f168201915b5050505060048301546005840154600690940154929390926001600160a01b0391821692501687565b6002818154811061083457600080fd5b6000918252602090912001546001600160a01b0316905081565b600061085861123a565b6001600160a01b03838116600090815260036020526040902060050154166108bd5760405162461bcd60e51b8152602060048201526013602482015272151bdad95b881a5cc81b9bdd081b1a5cdd1959606a1b60448201526064015b60405180910390fd5b6001600160a01b03831660009081526003602052604090206004810154849068014d1120d7b160000010156109345760405162461bcd60e51b815260206004820152601f60248201527f46756e64696e672068617320616c7265616479206265656e207261697365640060448201526064016108b4565b6000816001600160a01b03166318160ddd6040518163ffffffff1660e01b8152600401602060405180830381865afa158015610974573d6000803e3d6000fd5b505050506040513d601f19601f820116820180604052508101906109989190611ae9565b90506109ca6040518060400160405280600e81526020016d43757272656e7420737570706c7960901b81525082611264565b60408051808201909152600a8152694d617820737570706c7960b01b6020820152610a0990610a04670de0b6b3a7640000620f4240611b18565b611264565b600081610a21670de0b6b3a7640000620f4240611b18565b610a2b9190611b2f565b9050610a6c6040518060400160405280601b81526020017f51747920617661696c61626c6520666f7220707572636861736520000000000081525082611264565b6000610a80670de0b6b3a764000083611b42565b90506000610a96670de0b6b3a764000089611b18565b905081881115610ae85760405162461bcd60e51b815260206004820152601b60248201527f4e6f7420656e6f75676820617661696c61626c6520737570706c79000000000060448201526064016108b4565b6000670de0b6b3a76400006064610b0282620f4240611b18565b610b0d906014611b18565b610b179190611b42565b610b219087611b2f565b610b2b9190611b42565b90506000610b39828b61113e565b9050610b5d604051806060016040528060278152602001612b8a6027913982611264565b80341015610bad5760405162461bcd60e51b815260206004820152601b60248201527f496e636f72726563742076616c7565206f66204554482073656e74000000000060448201526064016108b4565b34886004016000828254610bc19190611b64565b9091555050600488015468014d1120d7b160000011610cd4576000610be58c6112ad565b6040516001600160a01b038083168252919250908d16907f3366ddec6d22baedae5089cdef368ab66cbf7cc63aec389ca0d4b54e447baa1b9060200160405180910390a260006064610c42670de0b6b3a7640000620f4240611b18565b610c4d906014611b18565b610c579190611b42565b60048b01549091506000610c6c8f84846113ce565b90508e6001600160a01b03167f3bca7014f4c0ccc8016338c79f4c00e82068dbadaf4f01ca5449040fdd39f500848484604051610cbc939291909283526020830191909152604082015260600190565b60405180910390a2610cce8482611512565b50505050505b6040516340c10f1960e01b8152336004820152602481018490526001600160a01b038816906340c10f1990604401600060405180830381600087803b158015610d1c57600080fd5b505af1158015610d30573d6000803e3d6000fd5b5050604080518082018252601e81527f557365722062616c616e6365206f662074686520746f6b656e73206973200000602082015290516370a0823160e01b8152336004820152610dd493509091506001600160a01b038a16906370a0823190602401602060405180830381865afa158015610db0573d6000803e3d6000fd5b505050506040513d601f19601f82011682018060405250810190610a049190611ae9565b610e836040518060400160405280601281526020017102732bb9030bb30b4b630b136329038ba3c960751b815250886001600160a01b03166318160ddd6040518163ffffffff1660e01b8152600401602060405180830381865afa158015610e40573d6000803e3d6000fd5b505050506040513d601f19601f82011682018060405250810190610e649190611ae9565b610e79670de0b6b3a7640000620f4240611b18565b610a049190611b2f565b604080516001600160a01b038d168152602081018c90523481830152905133917f8daf503382665d950e449b86172be5222275c90f4ddf69c29fdaa8237a562a6d919081900360600190a2600198505050505050505050610ee46001600055565b92915050565b610ef26115d7565b610efc6000611604565b565b6000610f0861123a565b655af3107a4000341015610f5e5760405162461bcd60e51b815260206004820152601f60248201527f666565206e6f74207061696420666f7220746f6b656e206372656174696f6e0060448201526064016108b4565b60008585336064610f7a670de0b6b3a7640000620f4240611b18565b610f85906014611b18565b610f8f9190611b42565b604051610f9b906116eb565b610fa89493929190611b77565b604051809103906000f080158015610fc4573d6000803e3d6000fd5b506040805160e0810182528881526020808201899052818301879052606082018890526000608083018190526001600160a01b03851660a084018190523360c085015260028054600181019091557f405787fa12a823e0f2b7631cc41b3ba8828b3321ca811111fa75cd3aa3bb5ace0180546001600160a01b0319168217905581526003909152919091208151929350839282919081906110659082611c0a565b506020820151600182019061107a9082611c0a565b506040820151600282019061108f9082611c0a565b50606082015160038201906110a49082611c0a565b506080820151600482015560a08201516005820180546001600160a01b03199081166001600160a01b039384161790915560c09093015160069092018054909316911617905560405133907fd5d05a8421149c74fd223cfc823befb883babf9bf0b0e4d6bf9c8fdb70e59bb4906111209085908c908c90611cca565b60405180910390a2509150506111366001600055565b949350505050565b600080670de0b6b3a76400006111548486611b64565b61116590661c6bf526340000611b18565b61116f9190611b42565b90506000670de0b6b3a764000061118d86661c6bf526340000611b18565b6111979190611b42565b905060006111a483611656565b905060006111b183611656565b90506000661c6bf5263400006111c78385611b2f565b6004546111dc90670de0b6b3a7640000611b18565b6111e69190611b18565b6111f09190611b42565b98975050505050505050565b6112046115d7565b6001600160a01b03811661122e57604051631e4fbdf760e01b8152600060048201526024016108b4565b61123781611604565b50565b60026000540361125d57604051633ee5aeb560e01b815260040160405180910390fd5b6002600055565b6112a9828260405160240161127a929190611d0a565b60408051601f198184030181529190526020810180516001600160e01b0316632d839cb360e21b1790526116c6565b5050565b600080735c69bee701ef814a2b6a3edd4b1652cb9cc5aa6f90506000737a250d5630b4cf539739df2c5dacb4c659f2488d90506000826001600160a01b031663c9c6539686846001600160a01b031663ad5c46486040518163ffffffff1660e01b8152600401602060405180830381865afa158015611330573d6000803e3d6000fd5b505050506040513d601f19601f820116820180604052508101906113549190611d2c565b6040516001600160e01b031960e085901b1681526001600160a01b039283166004820152911660248201526044016020604051808303816000875af11580156113a1573d6000803e3d6000fd5b505050506040513d601f19601f820116820180604052508101906113c59190611d2c565b95945050505050565b60405163095ea7b360e01b8152737a250d5630b4cf539739df2c5dacb4c659f2488d60048201526024810183905260009084906001600160a01b0382169063095ea7b3906044016020604051808303816000875af1158015611434573d6000803e3d6000fd5b505050506040513d601f19601f820116820180604052508101906114589190611d49565b5060405163f305d71960e01b81526001600160a01b03861660048201526024810185905260448101859052606481018490523060848201524260a4820152737a250d5630b4cf539739df2c5dacb4c659f2488d9060009081908190849063f305d71990899060c40160606040518083038185885af11580156114de573d6000803e3d6000fd5b50505050506040513d601f19601f820116820180604052508101906115039190611d6b565b9b9a5050505050505050505050565b60405163a9059cbb60e01b8152600060048201819052602482018390529083906001600160a01b0382169063a9059cbb906044016020604051808303816000875af1158015611565573d6000803e3d6000fd5b505050506040513d601f19601f820116820180604052508101906115899190611d49565b50836001600160a01b03167fe0618a3fe7eb627a24df9d59eb05ba9750f8feb54aeb8909fdd35c62efd34572846040516115c591815260200190565b60405180910390a25060019392505050565b6001546001600160a01b03163314610efc5760405163118cdaa760e01b81523360048201526024016108b4565b600180546001600160a01b038381166001600160a01b0319831681179093556040519116919082907f8be0079c531659141344cd1fd0a4f28419497f9722a3daafe3b4186f6b6457e090600090a35050565b6000670de0b6b3a7640000808360015b601481116116bc5761168081670de0b6b3a7640000611b18565b61168a8385611b18565b6116949190611b42565b92506116a08385611b64565b9350600183106116bc57806116b481611d99565b915050611666565b5091949350505050565b6112378160006a636f6e736f6c652e6c6f679050600080835160208501845afa505050565b610dd780611db383390190565b6000815180845260005b8181101561171e57602081850181015186830182015201611702565b506000602082860101526020601f19601f83011685010191505092915050565b600060208083018184528085518083526040925060408601915060408160051b87010184880160005b8381101561182a57603f19898403018552815160e0815181865261178d828701826116f8565b915050888201518582038a8701526117a582826116f8565b91505087820151858203898701526117bd82826116f8565b915050606080830151868303828801526117d783826116f8565b6080858101519089015260a0808601516001600160a01b03169089015260c0948501519490935091506118169050818701846001600160a01b03169052565b509588019593505090860190600101611767565b509098975050505050505050565b6001600160a01b038116811461123757600080fd5b60006020828403121561185f57600080fd5b813561186a81611838565b9392505050565b60e08152600061188460e083018a6116f8565b8281036020840152611896818a6116f8565b905082810360408401526118aa81896116f8565b905082810360608401526118be81886116f8565b608084019690965250506001600160a01b0392831660a0820152911660c090910152949350505050565b6000602082840312156118fa57600080fd5b5035919050565b6000806040838503121561191457600080fd5b823561191f81611838565b946020939093013593505050565b634e487b7160e01b600052604160045260246000fd5b600082601f83011261195457600080fd5b813567ffffffffffffffff8082111561196f5761196f61192d565b604051601f8301601f19908116603f011681019082821181831017156119975761199761192d565b816040528381528660208588010111156119b057600080fd5b836020870160208301376000602085830101528094505050505092915050565b600080600080608085870312156119e657600080fd5b843567ffffffffffffffff808211156119fe57600080fd5b611a0a88838901611943565b95506020870135915080821115611a2057600080fd5b611a2c88838901611943565b94506040870135915080821115611a4257600080fd5b611a4e88838901611943565b93506060870135915080821115611a6457600080fd5b50611a7187828801611943565b91505092959194509250565b60008060408385031215611a9057600080fd5b50508035926020909101359150565b634e487b7160e01b600052603260045260246000fd5b600181811c90821680611ac957607f821691505b6020821081036105b757634e487b7160e01b600052602260045260246000fd5b600060208284031215611afb57600080fd5b5051919050565b634e487b7160e01b600052601160045260246000fd5b8082028115828204841417610ee457610ee4611b02565b81810381811115610ee457610ee4611b02565b600082611b5f57634e487b7160e01b600052601260045260246000fd5b500490565b80820180821115610ee457610ee4611b02565b608081526000611b8a60808301876116f8565b8281036020840152611b9c81876116f8565b6001600160a01b0395909516604084015250506060015292915050565b601f821115611c05576000816000526020600020601f850160051c81016020861015611be25750805b601f850160051c820191505b81811015611c0157828155600101611bee565b5050505b505050565b815167ffffffffffffffff811115611c2457611c2461192d565b611c3881611c328454611ab5565b84611bb9565b602080601f831160018114611c6d5760008415611c555750858301515b600019600386901b1c1916600185901b178555611c01565b600085815260208120601f198616915b82811015611c9c57888601518255948401946001909101908401611c7d565b5085821015611cba5787850151600019600388901b60f8161c191681555b5050505050600190811b01905550565b6001600160a01b0384168152606060208201819052600090611cee908301856116f8565b8281036040840152611d0081856116f8565b9695505050505050565b604081526000611d1d60408301856116f8565b90508260208301529392505050565b600060208284031215611d3e57600080fd5b815161186a81611838565b600060208284031215611d5b57600080fd5b8151801515811461186a57600080fd5b600080600060608486031215611d8057600080fd5b8351925060208401519150604084015190509250925092565b600060018201611dab57611dab611b02565b506001019056fe608060405234801561001057600080fd5b50604051610dd7380380610dd783398101604081905261002f9161030e565b818484600361003e8382610424565b50600461004b8282610424565b5050506001600160a01b03811661007d57604051631e4fbdf760e01b8152600060048201526024015b60405180910390fd5b6100868161009a565b5061009133826100ec565b5050505061050a565b600580546001600160a01b038381166001600160a01b0319831681179093556040519116919082907f8be0079c531659141344cd1fd0a4f28419497f9722a3daafe3b4186f6b6457e090600090a35050565b6001600160a01b0382166101165760405163ec442f0560e01b815260006004820152602401610074565b61012260008383610126565b5050565b6001600160a01b03831661015157806002600082825461014691906104e3565b909155506101c39050565b6001600160a01b038316600090815260208190526040902054818110156101a45760405163391434e360e21b81526001600160a01b03851660048201526024810182905260448101839052606401610074565b6001600160a01b03841660009081526020819052604090209082900390555b6001600160a01b0382166101df576002805482900390556101fe565b6001600160a01b03821660009081526020819052604090208054820190555b816001600160a01b0316836001600160a01b03167fddf252ad1be2c89b69c2b068fc378daa952ba7f163c4a11628f55a4df523b3ef8360405161024391815260200190565b60405180910390a3505050565b634e487b7160e01b600052604160045260246000fd5b600082601f83011261027757600080fd5b81516001600160401b038082111561029157610291610250565b604051601f8301601f19908116603f011681019082821181831017156102b9576102b9610250565b81604052838152602092508660208588010111156102d657600080fd5b600091505b838210156102f857858201830151818301840152908201906102db565b6000602085830101528094505050505092915050565b6000806000806080858703121561032457600080fd5b84516001600160401b038082111561033b57600080fd5b61034788838901610266565b9550602087015191508082111561035d57600080fd5b5061036a87828801610266565b604087015190945090506001600160a01b038116811461038957600080fd5b6060959095015193969295505050565b600181811c908216806103ad57607f821691505b6020821081036103cd57634e487b7160e01b600052602260045260246000fd5b50919050565b601f82111561041f576000816000526020600020601f850160051c810160208610156103fc5750805b601f850160051c820191505b8181101561041b57828155600101610408565b5050505b505050565b81516001600160401b0381111561043d5761043d610250565b6104518161044b8454610399565b846103d3565b602080601f831160018114610486576000841561046e5750858301515b600019600386901b1c1916600185901b17855561041b565b600085815260208120601f198616915b828110156104b557888601518255948401946001909101908401610496565b50858210156104d35787850151600019600388901b60f8161c191681555b5050505050600190811b01905550565b8082018082111561050457634e487b7160e01b600052601160045260246000fd5b92915050565b6108be806105196000396000f3fe608060405234801561001057600080fd5b50600436106100cf5760003560e01c806370a082311161008c57806395d89b411161006657806395d89b41146101aa578063a9059cbb146101b2578063dd62ed3e146101c5578063f2fde38b146101fe57600080fd5b806370a082311461015e578063715018a6146101875780638da5cb5b1461018f57600080fd5b806306fdde03146100d4578063095ea7b3146100f257806318160ddd1461011557806323b872dd14610127578063313ce5671461013a57806340c10f1914610149575b600080fd5b6100dc610211565b6040516100e99190610707565b60405180910390f35b610105610100366004610772565b6102a3565b60405190151581526020016100e9565b6002545b6040519081526020016100e9565b61010561013536600461079c565b6102bd565b604051601281526020016100e9565b61015c610157366004610772565b6102e1565b005b61011961016c3660046107d8565b6001600160a01b031660009081526020819052604090205490565b61015c6102ef565b6005546040516001600160a01b0390911681526020016100e9565b6100dc610303565b6101056101c0366004610772565b610312565b6101196101d33660046107fa565b6001600160a01b03918216600090815260016020908152604080832093909416825291909152205490565b61015c61020c3660046107d8565b610320565b6060600380546102209061082d565b80601f016020809104026020016040519081016040528092919081815260200182805461024c9061082d565b80156102995780601f1061026e57610100808354040283529160200191610299565b820191906000526020600020905b81548152906001019060200180831161027c57829003601f168201915b5050505050905090565b6000336102b1818585610363565b60019150505b92915050565b6000336102cb858285610375565b6102d68585856103f4565b506001949350505050565b6102eb8282610453565b5050565b6102f7610489565b61030160006104b6565b565b6060600480546102209061082d565b6000336102b18185856103f4565b610328610489565b6001600160a01b03811661035757604051631e4fbdf760e01b8152600060048201526024015b60405180910390fd5b610360816104b6565b50565b6103708383836001610508565b505050565b6001600160a01b038381166000908152600160209081526040808320938616835292905220546000198110156103ee57818110156103df57604051637dc7a0d960e11b81526001600160a01b0384166004820152602481018290526044810183905260640161034e565b6103ee84848484036000610508565b50505050565b6001600160a01b03831661041e57604051634b637e8f60e11b81526000600482015260240161034e565b6001600160a01b0382166104485760405163ec442f0560e01b81526000600482015260240161034e565b6103708383836105dd565b6001600160a01b03821661047d5760405163ec442f0560e01b81526000600482015260240161034e565b6102eb600083836105dd565b6005546001600160a01b031633146103015760405163118cdaa760e01b815233600482015260240161034e565b600580546001600160a01b038381166001600160a01b0319831681179093556040519116919082907f8be0079c531659141344cd1fd0a4f28419497f9722a3daafe3b4186f6b6457e090600090a35050565b6001600160a01b0384166105325760405163e602df0560e01b81526000600482015260240161034e565b6001600160a01b03831661055c57604051634a1406b160e11b81526000600482015260240161034e565b6001600160a01b03808516600090815260016020908152604080832093871683529290522082905580156103ee57826001600160a01b0316846001600160a01b03167f8c5be1e5ebec7d5bd14f71427d1e84f3dd0314c0f7b2291e5b200ac8c7c3b925846040516105cf91815260200190565b60405180910390a350505050565b6001600160a01b0383166106085780600260008282546105fd9190610867565b9091555061067a9050565b6001600160a01b0383166000908152602081905260409020548181101561065b5760405163391434e360e21b81526001600160a01b0385166004820152602481018290526044810183905260640161034e565b6001600160a01b03841660009081526020819052604090209082900390555b6001600160a01b038216610696576002805482900390556106b5565b6001600160a01b03821660009081526020819052604090208054820190555b816001600160a01b0316836001600160a01b03167fddf252ad1be2c89b69c2b068fc378daa952ba7f163c4a11628f55a4df523b3ef836040516106fa91815260200190565b60405180910390a3505050565b60006020808352835180602085015260005b8181101561073557858101830151858201604001528201610719565b506000604082860101526040601f19601f8301168501019250505092915050565b80356001600160a01b038116811461076d57600080fd5b919050565b6000806040838503121561078557600080fd5b61078e83610756565b946020939093013593505050565b6000806000606084860312156107b157600080fd5b6107ba84610756565b92506107c860208501610756565b9150604084013590509250925092565b6000602082840312156107ea57600080fd5b6107f382610756565b9392505050565b6000806040838503121561080d57600080fd5b61081683610756565b915061082460208401610756565b90509250929050565b600181811c9082168061084157607f821691505b60208210810361086157634e487b7160e01b600052602260045260246000fd5b50919050565b808201808211156102b757634e487b7160e01b600052601160045260246000fdfea2646970667358221220c90294dfe8cd8479918665822246d9f41cb587d4d5562e7e3a4115ecc524d2cc64736f6c6343000819003345544820726571756972656420666f722070757263686173696e672020746f6b656e7320697320a2646970667358221220817f658afbb80a5491b3a3647758802025fd95a1835de02a0a7bee94fc8aa3d864736f6c63430008190033",
  "linkReferences": {},
  "deployedLinkReferences": {}
}