{
  "_format": "hh-sol-artifact-1",
  "contractName": "PumpFun",
  "sourceName": "contracts/Pump.sol",
  "abi": [
    {
      "inputs": [
        {
          "internalType": "address",
          "name": "_feeRecipient",
          "type": "address"
        },
        {
          "internalType": "uint256",
          "name": "_platformFee",
          "type": "uint256"
        }
      ],
      "stateMutability": "nonpayable",
      "type": "constructor"
    },
    {
      "inputs": [
        {
          "internalType": "address",
          "name": "owner",
          "type": "address"
        }
      ],
      "name": "OwnableInvalidOwner",
      "type": "error"
    },
    {
      "inputs": [
        {
          "internalType": "address",
          "name": "account",
          "type": "address"
        }
      ],
      "name": "OwnableUnauthorizedAccount",
      "type": "error"
    },
    {
      "inputs": [],
      "name": "ReentrancyGuardReentrantCall",
      "type": "error"
    },
    {
      "anonymous": false,
      "inputs": [
        {
          "indexed": false,
          "internalType": "uint256",
          "name": "eventId",
          "type": "uint256"
        },
        {
          "indexed": false,
          "internalType": "address",
          "name": "contributor",
          "type": "address"
        },
        {
          "indexed": false,
          "internalType": "uint256",
          "name": "amount",
          "type": "uint256"
        }
      ],
      "name": "ContributionMade",
      "type": "event"
    },
    {
      "anonymous": false,
      "inputs": [
        {
          "indexed": true,
          "internalType": "address",
          "name": "previousOwner",
          "type": "address"
        },
        {
          "indexed": true,
          "internalType": "address",
          "name": "newOwner",
          "type": "address"
        }
      ],
      "name": "OwnershipTransferred",
      "type": "event"
    },
    {
      "anonymous": false,
      "inputs": [
        {
          "indexed": false,
          "internalType": "uint256",
          "name": "eventId",
          "type": "uint256"
        }
      ],
      "name": "PumpEventCompleted",
      "type": "event"
    },
    {
      "anonymous": false,
      "inputs": [
        {
          "indexed": false,
          "internalType": "uint256",
          "name": "eventId",
          "type": "uint256"
        },
        {
          "indexed": false,
          "internalType": "address",
          "name": "token",
          "type": "address"
        },
        {
          "indexed": false,
          "internalType": "uint256",
          "name": "startTime",
          "type": "uint256"
        },
        {
          "indexed": false,
          "internalType": "uint256",
          "name": "endTime",
          "type": "uint256"
        },
        {
          "indexed": false,
          "internalType": "uint256",
          "name": "targetPrice",
          "type": "uint256"
        }
      ],
      "name": "PumpEventCreated",
      "type": "event"
    },
    {
      "anonymous": false,
      "inputs": [
        {
          "indexed": false,
          "internalType": "uint256",
          "name": "eventId",
          "type": "uint256"
        },
        {
          "indexed": false,
          "internalType": "address",
          "name": "contributor",
          "type": "address"
        },
        {
          "indexed": false,
          "internalType": "uint256",
          "name": "reward",
          "type": "uint256"
        }
      ],
      "name": "RewardsClaimed",
      "type": "event"
    },
    {
      "inputs": [
        {
          "internalType": "uint256",
          "name": "eventId",
          "type": "uint256"
        }
      ],
      "name": "claimRewards",
      "outputs": [],
      "stateMutability": "nonpayable",
      "type": "function"
    },
    {
      "inputs": [
        {
          "internalType": "uint256",
          "name": "eventId",
          "type": "uint256"
        }
      ],
      "name": "completePumpEvent",
      "outputs": [],
      "stateMutability": "nonpayable",
      "type": "function"
    },
    {
      "inputs": [
        {
          "internalType": "uint256",
          "name": "eventId",
          "type": "uint256"
        },
        {
          "internalType": "uint256",
          "name": "amount",
          "type": "uint256"
        }
      ],
      "name": "contribute",
      "outputs": [],
      "stateMutability": "nonpayable",
      "type": "function"
    },
    {
      "inputs": [
        {
          "internalType": "address",
          "name": "_token",
          "type": "address"
        },
        {
          "internalType": "uint256",
          "name": "_startTime",
          "type": "uint256"
        },
        {
          "internalType": "uint256",
          "name": "_endTime",
          "type": "uint256"
        },
        {
          "internalType": "uint256",
          "name": "_targetPrice",
          "type": "uint256"
        }
      ],
      "name": "createPumpEvent",
      "outputs": [
        {
          "internalType": "uint256",
          "name": "",
          "type": "uint256"
        }
      ],
      "stateMutability": "nonpayable",
      "type": "function"
    },
    {
      "inputs": [],
      "name": "eventCount",
      "outputs": [
        {
          "internalType": "uint256",
          "name": "",
          "type": "uint256"
        }
      ],
      "stateMutability": "view",
      "type": "function"
    },
    {
      "inputs": [],
      "name": "feeRecipient",
      "outputs": [
        {
          "internalType": "address",
          "name": "",
          "type": "address"
        }
      ],
      "stateMutability": "view",
      "type": "function"
    },
    {
      "inputs": [],
      "name": "owner",
      "outputs": [
        {
          "internalType": "address",
          "name": "",
          "type": "address"
        }
      ],
      "stateMutability": "view",
      "type": "function"
    },
    {
      "inputs": [],
      "name": "platformFee",
      "outputs": [
        {
          "internalType": "uint256",
          "name": "",
          "type": "uint256"
        }
      ],
      "stateMutability": "view",
      "type": "function"
    },
    {
      "inputs": [
        {
          "internalType": "uint256",
          "name": "",
          "type": "uint256"
        }
      ],
      "name": "pumpEvents",
      "outputs": [
        {
          "internalType": "address",
          "name": "token",
          "type": "address"
        },
        {
          "internalType": "uint256",
          "name": "startTime",
          "type": "uint256"
        },
        {
          "internalType": "uint256",
          "name": "endTime",
          "type": "uint256"
        },
        {
          "internalType": "uint256",
          "name": "totalContributed",
          "type": "uint256"
        },
        {
          "internalType": "uint256",
          "name": "targetPrice",
          "type": "uint256"
        },
        {
          "internalType": "bool",
          "name": "completed",
          "type": "bool"
        }
      ],
      "stateMutability": "view",
      "type": "function"
    },
    {
      "inputs": [],
      "name": "renounceOwnership",
      "outputs": [],
      "stateMutability": "nonpayable",
      "type": "function"
    },
    {
      "inputs": [
        {
          "internalType": "address",
          "name": "newOwner",
          "type": "address"
        }
      ],
      "name": "transferOwnership",
      "outputs": [],
      "stateMutability": "nonpayable",
      "type": "function"
    },
    {
      "inputs": [
        {
          "internalType": "address",
          "name": "_feeRecipient",
          "type": "address"
        }
      ],
      "name": "updateFeeRecipient",
      "outputs": [],
      "stateMutability": "nonpayable",
      "type": "function"
    },
    {
      "inputs": [
        {
          "internalType": "uint256",
          "name": "_platformFee",
          "type": "uint256"
        }
      ],
      "name": "updatePlatformFee",
      "outputs": [],
      "stateMutability": "nonpayable",
      "type": "function"
    }
  ],
  "bytecode": "0x608060405234801561001057600080fd5b5060405161200d38038061200d8339818101604052810190610032919061031f565b336001600081905550600073ffffffffffffffffffffffffffffffffffffffff168173ffffffffffffffffffffffffffffffffffffffff16036100ad5760006040517f1e4fbdf70000000000000000000000000000000000000000000000000000000081526004016100a4919061036e565b60405180910390fd5b6100bc816101c060201b60201c565b50600073ffffffffffffffffffffffffffffffffffffffff168273ffffffffffffffffffffffffffffffffffffffff160361012c576040517f08c379a0000000000000000000000000000000000000000000000000000000008152600401610123906103e6565b60405180910390fd5b6103e8811115610171576040517f08c379a000000000000000000000000000000000000000000000000000000000815260040161016890610452565b60405180910390fd5b81600460006101000a81548173ffffffffffffffffffffffffffffffffffffffff021916908373ffffffffffffffffffffffffffffffffffffffff160217905550806005819055505050610472565b6000600160009054906101000a900473ffffffffffffffffffffffffffffffffffffffff16905081600160006101000a81548173ffffffffffffffffffffffffffffffffffffffff021916908373ffffffffffffffffffffffffffffffffffffffff1602179055508173ffffffffffffffffffffffffffffffffffffffff168173ffffffffffffffffffffffffffffffffffffffff167f8be0079c531659141344cd1fd0a4f28419497f9722a3daafe3b4186f6b6457e060405160405180910390a35050565b600080fd5b600073ffffffffffffffffffffffffffffffffffffffff82169050919050565b60006102b68261028b565b9050919050565b6102c6816102ab565b81146102d157600080fd5b50565b6000815190506102e3816102bd565b92915050565b6000819050919050565b6102fc816102e9565b811461030757600080fd5b50565b600081519050610319816102f3565b92915050565b6000806040838503121561033657610335610286565b5b6000610344858286016102d4565b92505060206103558582860161030a565b9150509250929050565b610368816102ab565b82525050565b6000602082019050610383600083018461035f565b92915050565b600082825260208201905092915050565b7f496e76616c69642066656520726563697069656e740000000000000000000000600082015250565b60006103d0601583610389565b91506103db8261039a565b602082019050919050565b600060208201905081810360008301526103ff816103c3565b9050919050565b7f46656520746f6f20686967680000000000000000000000000000000000000000600082015250565b600061043c600c83610389565b915061044782610406565b602082019050919050565b6000602082019050818103600083015261046b8161042f565b9050919050565b611b8c806104816000396000f3fe608060405234801561001057600080fd5b50600436106100cf5760003560e01c80638a5306d21161008c578063aa0b598811610066578063aa0b5988146101da578063efd32c58146101f6578063f160d3691461022b578063f2fde38b14610247576100cf565b80638a5306d2146101705780638c590917146101a05780638da5cb5b146101bc576100cf565b80630962ef79146100d457806326232a2e146100f05780633f38ac5d1461010e578063469048401461012a578063715018a61461014857806371be2e4a14610152575b600080fd5b6100ee60048036038101906100e99190611044565b610263565b005b6100f861053c565b6040516101059190611080565b60405180910390f35b61012860048036038101906101239190611044565b610542565b005b610132610697565b60405161013f91906110dc565b60405180910390f35b6101506106bd565b005b61015a6106d1565b6040516101679190611080565b60405180910390f35b61018a60048036038101906101859190611123565b6106d7565b6040516101979190611080565b60405180910390f35b6101ba60048036038101906101b5919061118a565b610840565b005b6101c4610c39565b6040516101d191906110dc565b60405180910390f35b6101f460048036038101906101ef9190611044565b610c63565b005b610210600480360381019061020b9190611044565b610cba565b604051610222969594939291906111e5565b60405180910390f35b61024560048036038101906102409190611246565b610d23565b005b610261600480360381019061025c9190611246565b610dde565b005b61026b610e64565b8060035481106102b0576040517f08c379a00000000000000000000000000000000000000000000000000000000081526004016102a7906112d0565b60405180910390fd5b60006002600084815260200190815260200160002090508060050160009054906101000a900460ff16610318576040517f08c379a000000000000000000000000000000000000000000000000000000000815260040161030f9061133c565b60405180910390fd5b60008160060160003373ffffffffffffffffffffffffffffffffffffffff1673ffffffffffffffffffffffffffffffffffffffff168152602001908152602001600020549050600081116103a1576040517f08c379a0000000000000000000000000000000000000000000000000000000008152600401610398906113a8565b60405180910390fd5b600082600301548360030154836103b891906113f7565b6103c29190611468565b905060008360060160003373ffffffffffffffffffffffffffffffffffffffff1673ffffffffffffffffffffffffffffffffffffffff1681526020019081526020016000208190555060008360000160009054906101000a900473ffffffffffffffffffffffffffffffffffffffff1690508073ffffffffffffffffffffffffffffffffffffffff1663a9059cbb33846040518363ffffffff1660e01b815260040161046f929190611499565b6020604051808303816000875af115801561048e573d6000803e3d6000fd5b505050506040513d601f19601f820116820180604052508101906104b291906114ee565b6104f1576040517f08c379a00000000000000000000000000000000000000000000000000000000081526004016104e890611567565b60405180910390fd5b7f3300bdb359cfb956935bca32e9db727413eab1ca84341f2e36caea85bb79696886338460405161052493929190611587565b60405180910390a15050505050610539610eaa565b50565b60055481565b61054a610eb4565b80600354811061058f576040517f08c379a0000000000000000000000000000000000000000000000000000000008152600401610586906112d0565b60405180910390fd5b6000600260008481526020019081526020016000209050806002015442116105ec576040517f08c379a00000000000000000000000000000000000000000000000000000000081526004016105e39061160a565b60405180910390fd5b8060050160009054906101000a900460ff161561063e576040517f08c379a000000000000000000000000000000000000000000000000000000000815260040161063590611676565b60405180910390fd5b60018160050160006101000a81548160ff0219169083151502179055507ffd1207268b2ac58d4a1fc98985c246f9d9afb39be7993aba112e9e855b6d465d8360405161068a9190611080565b60405180910390a1505050565b600460009054906101000a900473ffffffffffffffffffffffffffffffffffffffff1681565b6106c5610eb4565b6106cf6000610f3b565b565b60035481565b60006106e1610eb4565b42841015610724576040517f08c379a000000000000000000000000000000000000000000000000000000000815260040161071b906116e2565b60405180910390fd5b838311610766576040517f08c379a000000000000000000000000000000000000000000000000000000000815260040161075d90611774565b60405180910390fd5b60006002600060035481526020019081526020016000209050858160000160006101000a81548173ffffffffffffffffffffffffffffffffffffffff021916908373ffffffffffffffffffffffffffffffffffffffff1602179055508481600101819055508381600201819055508281600401819055507f0d49a42a592e7104816608ce71244c18205dd6067e21ef1524ea2f0df1faa5ca60035487878787604051610816959493929190611794565b60405180910390a160036000815480929190610831906117e7565b91905055915050949350505050565b610848610e64565b81600354811061088d576040517f08c379a0000000000000000000000000000000000000000000000000000000008152600401610884906112d0565b60405180910390fd5b600060026000858152602001908152602001600020905080600101544210156108eb576040517f08c379a00000000000000000000000000000000000000000000000000000000081526004016108e29061187b565b60405180910390fd5b8060020154421115610932576040517f08c379a0000000000000000000000000000000000000000000000000000000008152600401610929906118e7565b60405180910390fd5b8060050160009054906101000a900460ff1615610984576040517f08c379a000000000000000000000000000000000000000000000000000000000815260040161097b90611676565b60405180910390fd5b60008160000160009054906101000a900473ffffffffffffffffffffffffffffffffffffffff1690508073ffffffffffffffffffffffffffffffffffffffff166323b872dd3330876040518463ffffffff1660e01b81526004016109ea93929190611907565b6020604051808303816000875af1158015610a09573d6000803e3d6000fd5b505050506040513d601f19601f82011682018060405250810190610a2d91906114ee565b610a6c576040517f08c379a0000000000000000000000000000000000000000000000000000000008152600401610a639061198a565b60405180910390fd5b600061271060055486610a7f91906113f7565b610a899190611468565b905060008186610a9991906119aa565b90508273ffffffffffffffffffffffffffffffffffffffff1663a9059cbb600460009054906101000a900473ffffffffffffffffffffffffffffffffffffffff16846040518363ffffffff1660e01b8152600401610af8929190611499565b6020604051808303816000875af1158015610b17573d6000803e3d6000fd5b505050506040513d601f19601f82011682018060405250810190610b3b91906114ee565b610b7a576040517f08c379a0000000000000000000000000000000000000000000000000000000008152600401610b7190611a2a565b60405180910390fd5b808460060160003373ffffffffffffffffffffffffffffffffffffffff1673ffffffffffffffffffffffffffffffffffffffff1681526020019081526020016000206000828254610bcb9190611a4a565b9250508190555080846003016000828254610be69190611a4a565b925050819055507f0a4a91237423e0a1766a761c7cb029311d8b95d6b1b81db1b949a70c98b4e08e873383604051610c2093929190611587565b60405180910390a15050505050610c35610eaa565b5050565b6000600160009054906101000a900473ffffffffffffffffffffffffffffffffffffffff16905090565b610c6b610eb4565b6103e8811115610cb0576040517f08c379a0000000000000000000000000000000000000000000000000000000008152600401610ca790611aca565b60405180910390fd5b8060058190555050565b60026020528060005260406000206000915090508060000160009054906101000a900473ffffffffffffffffffffffffffffffffffffffff16908060010154908060020154908060030154908060040154908060050160009054906101000a900460ff16905086565b610d2b610eb4565b600073ffffffffffffffffffffffffffffffffffffffff168173ffffffffffffffffffffffffffffffffffffffff1603610d9a576040517f08c379a0000000000000000000000000000000000000000000000000000000008152600401610d9190611b36565b60405180910390fd5b80600460006101000a81548173ffffffffffffffffffffffffffffffffffffffff021916908373ffffffffffffffffffffffffffffffffffffffff16021790555050565b610de6610eb4565b600073ffffffffffffffffffffffffffffffffffffffff168173ffffffffffffffffffffffffffffffffffffffff1603610e585760006040517f1e4fbdf7000000000000000000000000000000000000000000000000000000008152600401610e4f91906110dc565b60405180910390fd5b610e6181610f3b565b50565b600260005403610ea0576040517f3ee5aeb500000000000000000000000000000000000000000000000000000000815260040160405180910390fd5b6002600081905550565b6001600081905550565b610ebc611001565b73ffffffffffffffffffffffffffffffffffffffff16610eda610c39565b73ffffffffffffffffffffffffffffffffffffffff1614610f3957610efd611001565b6040517f118cdaa7000000000000000000000000000000000000000000000000000000008152600401610f3091906110dc565b60405180910390fd5b565b6000600160009054906101000a900473ffffffffffffffffffffffffffffffffffffffff16905081600160006101000a81548173ffffffffffffffffffffffffffffffffffffffff021916908373ffffffffffffffffffffffffffffffffffffffff1602179055508173ffffffffffffffffffffffffffffffffffffffff168173ffffffffffffffffffffffffffffffffffffffff167f8be0079c531659141344cd1fd0a4f28419497f9722a3daafe3b4186f6b6457e060405160405180910390a35050565b600033905090565b600080fd5b6000819050919050565b6110218161100e565b811461102c57600080fd5b50565b60008135905061103e81611018565b92915050565b60006020828403121561105a57611059611009565b5b60006110688482850161102f565b91505092915050565b61107a8161100e565b82525050565b60006020820190506110956000830184611071565b92915050565b600073ffffffffffffffffffffffffffffffffffffffff82169050919050565b60006110c68261109b565b9050919050565b6110d6816110bb565b82525050565b60006020820190506110f160008301846110cd565b92915050565b611100816110bb565b811461110b57600080fd5b50565b60008135905061111d816110f7565b92915050565b6000806000806080858703121561113d5761113c611009565b5b600061114b8782880161110e565b945050602061115c8782880161102f565b935050604061116d8782880161102f565b925050606061117e8782880161102f565b91505092959194509250565b600080604083850312156111a1576111a0611009565b5b60006111af8582860161102f565b92505060206111c08582860161102f565b9150509250929050565b60008115159050919050565b6111df816111ca565b82525050565b600060c0820190506111fa60008301896110cd565b6112076020830188611071565b6112146040830187611071565b6112216060830186611071565b61122e6080830185611071565b61123b60a08301846111d6565b979650505050505050565b60006020828403121561125c5761125b611009565b5b600061126a8482850161110e565b91505092915050565b600082825260208201905092915050565b7f50756d70206576656e7420646f6573206e6f7420657869737400000000000000600082015250565b60006112ba601983611273565b91506112c582611284565b602082019050919050565b600060208201905081810360008301526112e9816112ad565b9050919050565b7f50756d70206576656e74206e6f7420636f6d706c657465642079657400000000600082015250565b6000611326601c83611273565b9150611331826112f0565b602082019050919050565b6000602082019050818103600083015261135581611319565b9050919050565b7f4e6f20636f6e747269627574696f6e73206d6164652062792075736572000000600082015250565b6000611392601d83611273565b915061139d8261135c565b602082019050919050565b600060208201905081810360008301526113c181611385565b9050919050565b7f4e487b7100000000000000000000000000000000000000000000000000000000600052601160045260246000fd5b60006114028261100e565b915061140d8361100e565b925082820261141b8161100e565b91508282048414831517611432576114316113c8565b5b5092915050565b7f4e487b7100000000000000000000000000000000000000000000000000000000600052601260045260246000fd5b60006114738261100e565b915061147e8361100e565b92508261148e5761148d611439565b5b828204905092915050565b60006040820190506114ae60008301856110cd565b6114bb6020830184611071565b9392505050565b6114cb816111ca565b81146114d657600080fd5b50565b6000815190506114e8816114c2565b92915050565b60006020828403121561150457611503611009565b5b6000611512848285016114d9565b91505092915050565b7f526577617264207472616e73666572206661696c656400000000000000000000600082015250565b6000611551601683611273565b915061155c8261151b565b602082019050919050565b6000602082019050818103600083015261158081611544565b9050919050565b600060608201905061159c6000830186611071565b6115a960208301856110cd565b6115b66040830184611071565b949350505050565b7f50756d70206576656e74206e6f742079657420656e6465640000000000000000600082015250565b60006115f4601883611273565b91506115ff826115be565b602082019050919050565b60006020820190508181036000830152611623816115e7565b9050919050565b7f50756d70206576656e7420616c726561647920636f6d706c6574656400000000600082015250565b6000611660601c83611273565b915061166b8261162a565b602082019050919050565b6000602082019050818103600083015261168f81611653565b9050919050565b7f53746172742074696d65206d75737420626520696e2074686520667574757265600082015250565b60006116cc602083611273565b91506116d782611696565b602082019050919050565b600060208201905081810360008301526116fb816116bf565b9050919050565b7f456e642074696d65206d7573742062652061667465722073746172742074696d60008201527f6500000000000000000000000000000000000000000000000000000000000000602082015250565b600061175e602183611273565b915061176982611702565b604082019050919050565b6000602082019050818103600083015261178d81611751565b9050919050565b600060a0820190506117a96000830188611071565b6117b660208301876110cd565b6117c36040830186611071565b6117d06060830185611071565b6117dd6080830184611071565b9695505050505050565b60006117f28261100e565b91507fffffffffffffffffffffffffffffffffffffffffffffffffffffffffffffffff8203611824576118236113c8565b5b600182019050919050565b7f50756d70206576656e7420686173206e6f742073746172746564000000000000600082015250565b6000611865601a83611273565b91506118708261182f565b602082019050919050565b6000602082019050818103600083015261189481611858565b9050919050565b7f50756d70206576656e742068617320656e646564000000000000000000000000600082015250565b60006118d1601483611273565b91506118dc8261189b565b602082019050919050565b60006020820190508181036000830152611900816118c4565b9050919050565b600060608201905061191c60008301866110cd565b61192960208301856110cd565b6119366040830184611071565b949350505050565b7f546f6b656e207472616e73666572206661696c65640000000000000000000000600082015250565b6000611974601583611273565b915061197f8261193e565b602082019050919050565b600060208201905081810360008301526119a381611967565b9050919050565b60006119b58261100e565b91506119c08361100e565b92508282039050818111156119d8576119d76113c8565b5b92915050565b7f466565207472616e73666572206661696c656400000000000000000000000000600082015250565b6000611a14601383611273565b9150611a1f826119de565b602082019050919050565b60006020820190508181036000830152611a4381611a07565b9050919050565b6000611a558261100e565b9150611a608361100e565b9250828201905080821115611a7857611a776113c8565b5b92915050565b7f46656520746f6f20686967680000000000000000000000000000000000000000600082015250565b6000611ab4600c83611273565b9150611abf82611a7e565b602082019050919050565b60006020820190508181036000830152611ae381611aa7565b9050919050565b7f496e76616c69642066656520726563697069656e740000000000000000000000600082015250565b6000611b20601583611273565b9150611b2b82611aea565b602082019050919050565b60006020820190508181036000830152611b4f81611b13565b905091905056fea264697066735822122093707b4027a78b2e92102a1d004259809d36f04e4ec017236da7605697b5c74c64736f6c63430008190033",
  "linkReferences": {},
  "deployedLinkReferences": {}
}