{
  "_format": "hh-sol-artifact-1",
  "contractName": "PumpFunClone",
  "sourceName": "contracts/Pump.sol",
  "abi": [
    {
      "inputs": [],
      "stateMutability": "nonpayable",
      "type": "constructor"
    },
    {
      "inputs": [
        {
          "internalType": "address",
          "name": "owner",
          "type": "address"
        }
      ],
      "name": "OwnableInvalidOwner",
      "type": "error"
    },
    {
      "inputs": [
        {
          "internalType": "address",
          "name": "account",
          "type": "address"
        }
      ],
      "name": "OwnableUnauthorizedAccount",
      "type": "error"
    },
    {
      "inputs": [],
      "name": "ReentrancyGuardReentrantCall",
      "type": "error"
    },
    {
      "anonymous": false,
      "inputs": [
        {
          "indexed": true,
          "internalType": "address",
          "name": "poolAddress",
          "type": "address"
        },
        {
          "indexed": false,
          "internalType": "uint256",
          "name": "liquidity",
          "type": "uint256"
        }
      ],
      "name": "LPBurned",
      "type": "event"
    },
    {
      "anonymous": false,
      "inputs": [
        {
          "indexed": true,
          "internalType": "address",
          "name": "tokenAddress",
          "type": "address"
        },
        {
          "indexed": false,
          "internalType": "address",
          "name": "poolAddress",
          "type": "address"
        }
      ],
      "name": "LiquidityPoolCreated",
      "type": "event"
    },
    {
      "anonymous": false,
      "inputs": [
        {
          "indexed": true,
          "internalType": "address",
          "name": "tokenAddress",
          "type": "address"
        },
        {
          "indexed": false,
          "internalType": "uint256",
          "name": "tokenAmount",
          "type": "uint256"
        },
        {
          "indexed": false,
          "internalType": "uint256",
          "name": "ethAmount",
          "type": "uint256"
        },
        {
          "indexed": false,
          "internalType": "uint256",
          "name": "liquidity",
          "type": "uint256"
        }
      ],
      "name": "LiquidityProvided",
      "type": "event"
    },
    {
      "anonymous": false,
      "inputs": [
        {
          "indexed": true,
          "internalType": "address",
          "name": "previousOwner",
          "type": "address"
        },
        {
          "indexed": true,
          "internalType": "address",
          "name": "newOwner",
          "type": "address"
        }
      ],
      "name": "OwnershipTransferred",
      "type": "event"
    },
    {
      "anonymous": false,
      "inputs": [
        {
          "indexed": true,
          "internalType": "address",
          "name": "creator",
          "type": "address"
        },
        {
          "indexed": false,
          "internalType": "address",
          "name": "tokenAddress",
          "type": "address"
        },
        {
          "indexed": false,
          "internalType": "string",
          "name": "name",
          "type": "string"
        },
        {
          "indexed": false,
          "internalType": "string",
          "name": "symbol",
          "type": "string"
        }
      ],
      "name": "TokenCreated",
      "type": "event"
    },
    {
      "anonymous": false,
      "inputs": [
        {
          "indexed": true,
          "internalType": "address",
          "name": "buyer",
          "type": "address"
        },
        {
          "indexed": false,
          "internalType": "address",
          "name": "tokenAddress",
          "type": "address"
        },
        {
          "indexed": false,
          "internalType": "uint256",
          "name": "amount",
          "type": "uint256"
        },
        {
          "indexed": false,
          "internalType": "uint256",
          "name": "ethSpent",
          "type": "uint256"
        }
      ],
      "name": "TokenPurchased",
      "type": "event"
    },
    {
      "inputs": [],
      "name": "INITIAL_PRICE",
      "outputs": [
        {
          "internalType": "uint256",
          "name": "",
          "type": "uint256"
        }
      ],
      "stateMutability": "view",
      "type": "function"
    },
    {
      "inputs": [],
      "name": "K",
      "outputs": [
        {
          "internalType": "uint256",
          "name": "",
          "type": "uint256"
        }
      ],
      "stateMutability": "view",
      "type": "function"
    },
    {
      "inputs": [
        {
          "internalType": "uint256",
          "name": "",
          "type": "uint256"
        }
      ],
      "name": "PumpTokenAddresses",
      "outputs": [
        {
          "internalType": "address",
          "name": "",
          "type": "address"
        }
      ],
      "stateMutability": "view",
      "type": "function"
    },
    {
      "inputs": [
        {
          "internalType": "address",
          "name": "",
          "type": "address"
        }
      ],
      "name": "addressToPumpTokenMapping",
      "outputs": [
        {
          "internalType": "string",
          "name": "name",
          "type": "string"
        },
        {
          "internalType": "string",
          "name": "symbol",
          "type": "string"
        },
        {
          "internalType": "string",
          "name": "description",
          "type": "string"
        },
        {
          "internalType": "string",
          "name": "tokenImageUrl",
          "type": "string"
        },
        {
          "internalType": "uint256",
          "name": "fundingRaised",
          "type": "uint256"
        },
        {
          "internalType": "address",
          "name": "tokenAddress",
          "type": "address"
        },
        {
          "internalType": "address",
          "name": "creatorAddress",
          "type": "address"
        }
      ],
      "stateMutability": "view",
      "type": "function"
    },
    {
      "inputs": [
        {
          "internalType": "address",
          "name": "tokenAddress",
          "type": "address"
        },
        {
          "internalType": "uint256",
          "name": "tokenQty",
          "type": "uint256"
        }
      ],
      "name": "buyToken",
      "outputs": [
        {
          "internalType": "bool",
          "name": "",
          "type": "bool"
        }
      ],
      "stateMutability": "payable",
      "type": "function"
    },
    {
      "inputs": [
        {
          "internalType": "uint256",
          "name": "currentSupply",
          "type": "uint256"
        },
        {
          "internalType": "uint256",
          "name": "tokensToBuy",
          "type": "uint256"
        }
      ],
      "name": "calculateCost",
      "outputs": [
        {
          "internalType": "uint256",
          "name": "",
          "type": "uint256"
        }
      ],
      "stateMutability": "view",
      "type": "function"
    },
    {
      "inputs": [
        {
          "internalType": "string",
          "name": "name",
          "type": "string"
        },
        {
          "internalType": "string",
          "name": "symbol",
          "type": "string"
        },
        {
          "internalType": "string",
          "name": "imageUrl",
          "type": "string"
        },
        {
          "internalType": "string",
          "name": "description",
          "type": "string"
        }
      ],
      "name": "createToken",
      "outputs": [
        {
          "internalType": "address",
          "name": "",
          "type": "address"
        }
      ],
      "stateMutability": "payable",
      "type": "function"
    },
    {
      "inputs": [],
      "name": "owner",
      "outputs": [
        {
          "internalType": "address",
          "name": "",
          "type": "address"
        }
      ],
      "stateMutability": "view",
      "type": "function"
    },
    {
      "inputs": [],
      "name": "renounceOwnership",
      "outputs": [],
      "stateMutability": "nonpayable",
      "type": "function"
    },
    {
      "inputs": [
        {
          "internalType": "address",
          "name": "newOwner",
          "type": "address"
        }
      ],
      "name": "transferOwnership",
      "outputs": [],
      "stateMutability": "nonpayable",
      "type": "function"
    }
  ],
  "bytecode": "0x6080604052651b48eb57e000600455348015601957600080fd5b5060016000553380604457604051631e4fbdf760e01b81526000600482015260240160405180910390fd5b604b816050565b5060a2565b600180546001600160a01b038381166001600160a01b0319831681179093556040519116919082907f8be0079c531659141344cd1fd0a4f28419497f9722a3daafe3b4186f6b6457e090600090a35050565b612713806100b16000396000f3fe6080604052600436106100915760003560e01c80638da5cb5b116100595780638da5cb5b14610168578063a076965914610186578063a932492f14610199578063ce394696146101b4578063f2fde38b146101d457600080fd5b80635bc6c571146100965780635f734ce6146100d257806368f8fc101461010a578063715018a61461012d5780637c5e279514610144575b600080fd5b3480156100a257600080fd5b506100b66100b1366004611344565b6101f4565b6040516100c997969594939291906113ae565b60405180910390f35b3480156100de57600080fd5b506100f26100ed366004611425565b61045b565b6040516001600160a01b0390911681526020016100c9565b61011d61011836600461143e565b610485565b60405190151581526020016100c9565b34801561013957600080fd5b50610142610b21565b005b34801561015057600080fd5b5061015a60045481565b6040519081526020016100c9565b34801561017457600080fd5b506001546001600160a01b03166100f2565b6100f261019436600461150d565b610b35565b3480156101a557600080fd5b5061015a661c6bf52634000081565b3480156101c057600080fd5b5061015a6101cf3660046115ba565b610d75565b3480156101e057600080fd5b506101426101ef366004611344565b610e33565b60036020526000908152604090208054819061020f906115dc565b80601f016020809104026020016040519081016040528092919081815260200182805461023b906115dc565b80156102885780601f1061025d57610100808354040283529160200191610288565b820191906000526020600020905b81548152906001019060200180831161026b57829003601f168201915b50505050509080600101805461029d906115dc565b80601f01602080910402602001604051908101604052809291908181526020018280546102c9906115dc565b80156103165780601f106102eb57610100808354040283529160200191610316565b820191906000526020600020905b8154815290600101906020018083116102f957829003601f168201915b50505050509080600201805461032b906115dc565b80601f0160208091040260200160405190810160405280929190818152602001828054610357906115dc565b80156103a45780601f10610379576101008083540402835291602001916103a4565b820191906000526020600020905b81548152906001019060200180831161038757829003601f168201915b5050505050908060030180546103b9906115dc565b80601f01602080910402602001604051908101604052809291908181526020018280546103e5906115dc565b80156104325780601f1061040757610100808354040283529160200191610432565b820191906000526020600020905b81548152906001019060200180831161041557829003601f168201915b5050505060048301546005840154600690940154929390926001600160a01b0391821692501687565b6002818154811061046b57600080fd5b6000918252602090912001546001600160a01b0316905081565b600061048f610e71565b6001600160a01b03838116600090815260036020526040902060050154166104f45760405162461bcd60e51b8152602060048201526013602482015272151bdad95b881a5cc81b9bdd081b1a5cdd1959606a1b60448201526064015b60405180910390fd5b6001600160a01b03831660009081526003602052604090206004810154849068014d1120d7b1600000101561056b5760405162461bcd60e51b815260206004820152601f60248201527f46756e64696e672068617320616c7265616479206265656e207261697365640060448201526064016104eb565b6000816001600160a01b03166318160ddd6040518163ffffffff1660e01b8152600401602060405180830381865afa1580156105ab573d6000803e3d6000fd5b505050506040513d601f19601f820116820180604052508101906105cf9190611616565b90506106016040518060400160405280600e81526020016d43757272656e7420737570706c7960901b81525082610e9b565b60408051808201909152600a8152694d617820737570706c7960b01b60208201526106409061063b670de0b6b3a7640000620f4240611645565b610e9b565b600081610658670de0b6b3a7640000620f4240611645565b610662919061165c565b90506106a36040518060400160405280601b81526020017f51747920617661696c61626c6520666f7220707572636861736520000000000081525082610e9b565b60006106b7670de0b6b3a76400008361166f565b905060006106cd670de0b6b3a764000089611645565b90508188111561071f5760405162461bcd60e51b815260206004820152601b60248201527f4e6f7420656e6f75676820617661696c61626c6520737570706c79000000000060448201526064016104eb565b6000670de0b6b3a7640000606461073982620f4240611645565b610744906014611645565b61074e919061166f565b610758908761165c565b610762919061166f565b90506000610770828b610d75565b90506107946040518060600160405280602781526020016126b76027913982610e9b565b803410156107e45760405162461bcd60e51b815260206004820152601b60248201527f496e636f72726563742076616c7565206f66204554482073656e74000000000060448201526064016104eb565b348860040160008282546107f89190611691565b9091555050600488015468014d1120d7b16000001161090b57600061081c8c610ee4565b6040516001600160a01b038083168252919250908d16907f3366ddec6d22baedae5089cdef368ab66cbf7cc63aec389ca0d4b54e447baa1b9060200160405180910390a260006064610879670de0b6b3a7640000620f4240611645565b610884906014611645565b61088e919061166f565b60048b015490915060006108a38f8484611005565b90508e6001600160a01b03167f3bca7014f4c0ccc8016338c79f4c00e82068dbadaf4f01ca5449040fdd39f5008484846040516108f3939291909283526020830191909152604082015260600190565b60405180910390a26109058482611149565b50505050505b6040516340c10f1960e01b8152336004820152602481018490526001600160a01b038816906340c10f1990604401600060405180830381600087803b15801561095357600080fd5b505af1158015610967573d6000803e3d6000fd5b5050604080518082018252601e81527f557365722062616c616e6365206f662074686520746f6b656e73206973200000602082015290516370a0823160e01b8152336004820152610a0b93509091506001600160a01b038a16906370a0823190602401602060405180830381865afa1580156109e7573d6000803e3d6000fd5b505050506040513d601f19601f8201168201806040525081019061063b9190611616565b610aba6040518060400160405280601281526020017102732bb9030bb30b4b630b136329038ba3c960751b815250886001600160a01b03166318160ddd6040518163ffffffff1660e01b8152600401602060405180830381865afa158015610a77573d6000803e3d6000fd5b505050506040513d601f19601f82011682018060405250810190610a9b9190611616565b610ab0670de0b6b3a7640000620f4240611645565b61063b919061165c565b604080516001600160a01b038d168152602081018c90523481830152905133917f8daf503382665d950e449b86172be5222275c90f4ddf69c29fdaa8237a562a6d919081900360600190a2600198505050505050505050610b1b6001600055565b92915050565b610b2961120e565b610b33600061123b565b565b6000610b3f610e71565b655af3107a4000341015610b955760405162461bcd60e51b815260206004820152601f60248201527f666565206e6f74207061696420666f7220746f6b656e206372656174696f6e0060448201526064016104eb565b60008585336064610bb1670de0b6b3a7640000620f4240611645565b610bbc906014611645565b610bc6919061166f565b604051610bd290611322565b610bdf94939291906116a4565b604051809103906000f080158015610bfb573d6000803e3d6000fd5b506040805160e0810182528881526020808201899052818301879052606082018890526000608083018190526001600160a01b03851660a084018190523360c085015260028054600181019091557f405787fa12a823e0f2b7631cc41b3ba8828b3321ca811111fa75cd3aa3bb5ace0180546001600160a01b031916821790558152600390915291909120815192935083928291908190610c9c9082611737565b5060208201516001820190610cb19082611737565b5060408201516002820190610cc69082611737565b5060608201516003820190610cdb9082611737565b506080820151600482015560a08201516005820180546001600160a01b03199081166001600160a01b039384161790915560c09093015160069092018054909316911617905560405133907fd5d05a8421149c74fd223cfc823befb883babf9bf0b0e4d6bf9c8fdb70e59bb490610d579085908c908c906117f7565b60405180910390a250915050610d6d6001600055565b949350505050565b600080670de0b6b3a7640000610d8b8486611691565b610d9c90661c6bf526340000611645565b610da6919061166f565b90506000670de0b6b3a7640000610dc486661c6bf526340000611645565b610dce919061166f565b90506000610ddb8361128d565b90506000610de88361128d565b90506000661c6bf526340000610dfe838561165c565b600454610e1390670de0b6b3a7640000611645565b610e1d9190611645565b610e27919061166f565b98975050505050505050565b610e3b61120e565b6001600160a01b038116610e6557604051631e4fbdf760e01b8152600060048201526024016104eb565b610e6e8161123b565b50565b600260005403610e9457604051633ee5aeb560e01b815260040160405180910390fd5b6002600055565b610ee08282604051602401610eb1929190611837565b60408051601f198184030181529190526020810180516001600160e01b0316632d839cb360e21b1790526112fd565b5050565b600080735c69bee701ef814a2b6a3edd4b1652cb9cc5aa6f90506000737a250d5630b4cf539739df2c5dacb4c659f2488d90506000826001600160a01b031663c9c6539686846001600160a01b031663ad5c46486040518163ffffffff1660e01b8152600401602060405180830381865afa158015610f67573d6000803e3d6000fd5b505050506040513d601f19601f82011682018060405250810190610f8b9190611859565b6040516001600160e01b031960e085901b1681526001600160a01b039283166004820152911660248201526044016020604051808303816000875af1158015610fd8573d6000803e3d6000fd5b505050506040513d601f19601f82011682018060405250810190610ffc9190611859565b95945050505050565b60405163095ea7b360e01b8152737a250d5630b4cf539739df2c5dacb4c659f2488d60048201526024810183905260009084906001600160a01b0382169063095ea7b3906044016020604051808303816000875af115801561106b573d6000803e3d6000fd5b505050506040513d601f19601f8201168201806040525081019061108f9190611876565b5060405163f305d71960e01b81526001600160a01b03861660048201526024810185905260448101859052606481018490523060848201524260a4820152737a250d5630b4cf539739df2c5dacb4c659f2488d9060009081908190849063f305d71990899060c40160606040518083038185885af1158015611115573d6000803e3d6000fd5b50505050506040513d601f19601f8201168201806040525081019061113a9190611898565b9b9a5050505050505050505050565b60405163a9059cbb60e01b8152600060048201819052602482018390529083906001600160a01b0382169063a9059cbb906044016020604051808303816000875af115801561119c573d6000803e3d6000fd5b505050506040513d601f19601f820116820180604052508101906111c09190611876565b50836001600160a01b03167fe0618a3fe7eb627a24df9d59eb05ba9750f8feb54aeb8909fdd35c62efd34572846040516111fc91815260200190565b60405180910390a25060019392505050565b6001546001600160a01b03163314610b335760405163118cdaa760e01b81523360048201526024016104eb565b600180546001600160a01b038381166001600160a01b0319831681179093556040519116919082907f8be0079c531659141344cd1fd0a4f28419497f9722a3daafe3b4186f6b6457e090600090a35050565b6000670de0b6b3a7640000808360015b601481116112f3576112b781670de0b6b3a7640000611645565b6112c18385611645565b6112cb919061166f565b92506112d78385611691565b9350600183106112f357806112eb816118c6565b91505061129d565b5091949350505050565b610e6e8160006a636f6e736f6c652e6c6f679050600080835160208501845afa505050565b610dd7806118e083390190565b6001600160a01b0381168114610e6e57600080fd5b60006020828403121561135657600080fd5b81356113618161132f565b9392505050565b6000815180845260005b8181101561138e57602081850181015186830182015201611372565b506000602082860101526020601f19601f83011685010191505092915050565b60e0815260006113c160e083018a611368565b82810360208401526113d3818a611368565b905082810360408401526113e78189611368565b905082810360608401526113fb8188611368565b608084019690965250506001600160a01b0392831660a0820152911660c090910152949350505050565b60006020828403121561143757600080fd5b5035919050565b6000806040838503121561145157600080fd5b823561145c8161132f565b946020939093013593505050565b634e487b7160e01b600052604160045260246000fd5b600082601f83011261149157600080fd5b813567ffffffffffffffff808211156114ac576114ac61146a565b604051601f8301601f19908116603f011681019082821181831017156114d4576114d461146a565b816040528381528660208588010111156114ed57600080fd5b836020870160208301376000602085830101528094505050505092915050565b6000806000806080858703121561152357600080fd5b843567ffffffffffffffff8082111561153b57600080fd5b61154788838901611480565b9550602087013591508082111561155d57600080fd5b61156988838901611480565b9450604087013591508082111561157f57600080fd5b61158b88838901611480565b935060608701359150808211156115a157600080fd5b506115ae87828801611480565b91505092959194509250565b600080604083850312156115cd57600080fd5b50508035926020909101359150565b600181811c908216806115f057607f821691505b60208210810361161057634e487b7160e01b600052602260045260246000fd5b50919050565b60006020828403121561162857600080fd5b5051919050565b634e487b7160e01b600052601160045260246000fd5b8082028115828204841417610b1b57610b1b61162f565b81810381811115610b1b57610b1b61162f565b60008261168c57634e487b7160e01b600052601260045260246000fd5b500490565b80820180821115610b1b57610b1b61162f565b6080815260006116b76080830187611368565b82810360208401526116c98187611368565b6001600160a01b0395909516604084015250506060015292915050565b601f821115611732576000816000526020600020601f850160051c8101602086101561170f5750805b601f850160051c820191505b8181101561172e5782815560010161171b565b5050505b505050565b815167ffffffffffffffff8111156117515761175161146a565b6117658161175f84546115dc565b846116e6565b602080601f83116001811461179a57600084156117825750858301515b600019600386901b1c1916600185901b17855561172e565b600085815260208120601f198616915b828110156117c9578886015182559484019460019091019084016117aa565b50858210156117e75787850151600019600388901b60f8161c191681555b5050505050600190811b01905550565b6001600160a01b038416815260606020820181905260009061181b90830185611368565b828103604084015261182d8185611368565b9695505050505050565b60408152600061184a6040830185611368565b90508260208301529392505050565b60006020828403121561186b57600080fd5b81516113618161132f565b60006020828403121561188857600080fd5b8151801515811461136157600080fd5b6000806000606084860312156118ad57600080fd5b8351925060208401519150604084015190509250925092565b6000600182016118d8576118d861162f565b506001019056fe608060405234801561001057600080fd5b50604051610dd7380380610dd783398101604081905261002f9161030e565b818484600361003e8382610424565b50600461004b8282610424565b5050506001600160a01b03811661007d57604051631e4fbdf760e01b8152600060048201526024015b60405180910390fd5b6100868161009a565b5061009133826100ec565b5050505061050a565b600580546001600160a01b038381166001600160a01b0319831681179093556040519116919082907f8be0079c531659141344cd1fd0a4f28419497f9722a3daafe3b4186f6b6457e090600090a35050565b6001600160a01b0382166101165760405163ec442f0560e01b815260006004820152602401610074565b61012260008383610126565b5050565b6001600160a01b03831661015157806002600082825461014691906104e3565b909155506101c39050565b6001600160a01b038316600090815260208190526040902054818110156101a45760405163391434e360e21b81526001600160a01b03851660048201526024810182905260448101839052606401610074565b6001600160a01b03841660009081526020819052604090209082900390555b6001600160a01b0382166101df576002805482900390556101fe565b6001600160a01b03821660009081526020819052604090208054820190555b816001600160a01b0316836001600160a01b03167fddf252ad1be2c89b69c2b068fc378daa952ba7f163c4a11628f55a4df523b3ef8360405161024391815260200190565b60405180910390a3505050565b634e487b7160e01b600052604160045260246000fd5b600082601f83011261027757600080fd5b81516001600160401b038082111561029157610291610250565b604051601f8301601f19908116603f011681019082821181831017156102b9576102b9610250565b81604052838152602092508660208588010111156102d657600080fd5b600091505b838210156102f857858201830151818301840152908201906102db565b6000602085830101528094505050505092915050565b6000806000806080858703121561032457600080fd5b84516001600160401b038082111561033b57600080fd5b61034788838901610266565b9550602087015191508082111561035d57600080fd5b5061036a87828801610266565b604087015190945090506001600160a01b038116811461038957600080fd5b6060959095015193969295505050565b600181811c908216806103ad57607f821691505b6020821081036103cd57634e487b7160e01b600052602260045260246000fd5b50919050565b601f82111561041f576000816000526020600020601f850160051c810160208610156103fc5750805b601f850160051c820191505b8181101561041b57828155600101610408565b5050505b505050565b81516001600160401b0381111561043d5761043d610250565b6104518161044b8454610399565b846103d3565b602080601f831160018114610486576000841561046e5750858301515b600019600386901b1c1916600185901b17855561041b565b600085815260208120601f198616915b828110156104b557888601518255948401946001909101908401610496565b50858210156104d35787850151600019600388901b60f8161c191681555b5050505050600190811b01905550565b8082018082111561050457634e487b7160e01b600052601160045260246000fd5b92915050565b6108be806105196000396000f3fe608060405234801561001057600080fd5b50600436106100cf5760003560e01c806370a082311161008c57806395d89b411161006657806395d89b41146101aa578063a9059cbb146101b2578063dd62ed3e146101c5578063f2fde38b146101fe57600080fd5b806370a082311461015e578063715018a6146101875780638da5cb5b1461018f57600080fd5b806306fdde03146100d4578063095ea7b3146100f257806318160ddd1461011557806323b872dd14610127578063313ce5671461013a57806340c10f1914610149575b600080fd5b6100dc610211565b6040516100e99190610707565b60405180910390f35b610105610100366004610772565b6102a3565b60405190151581526020016100e9565b6002545b6040519081526020016100e9565b61010561013536600461079c565b6102bd565b604051601281526020016100e9565b61015c610157366004610772565b6102e1565b005b61011961016c3660046107d8565b6001600160a01b031660009081526020819052604090205490565b61015c6102ef565b6005546040516001600160a01b0390911681526020016100e9565b6100dc610303565b6101056101c0366004610772565b610312565b6101196101d33660046107fa565b6001600160a01b03918216600090815260016020908152604080832093909416825291909152205490565b61015c61020c3660046107d8565b610320565b6060600380546102209061082d565b80601f016020809104026020016040519081016040528092919081815260200182805461024c9061082d565b80156102995780601f1061026e57610100808354040283529160200191610299565b820191906000526020600020905b81548152906001019060200180831161027c57829003601f168201915b5050505050905090565b6000336102b1818585610363565b60019150505b92915050565b6000336102cb858285610375565b6102d68585856103f4565b506001949350505050565b6102eb8282610453565b5050565b6102f7610489565b61030160006104b6565b565b6060600480546102209061082d565b6000336102b18185856103f4565b610328610489565b6001600160a01b03811661035757604051631e4fbdf760e01b8152600060048201526024015b60405180910390fd5b610360816104b6565b50565b6103708383836001610508565b505050565b6001600160a01b038381166000908152600160209081526040808320938616835292905220546000198110156103ee57818110156103df57604051637dc7a0d960e11b81526001600160a01b0384166004820152602481018290526044810183905260640161034e565b6103ee84848484036000610508565b50505050565b6001600160a01b03831661041e57604051634b637e8f60e11b81526000600482015260240161034e565b6001600160a01b0382166104485760405163ec442f0560e01b81526000600482015260240161034e565b6103708383836105dd565b6001600160a01b03821661047d5760405163ec442f0560e01b81526000600482015260240161034e565b6102eb600083836105dd565b6005546001600160a01b031633146103015760405163118cdaa760e01b815233600482015260240161034e565b600580546001600160a01b038381166001600160a01b0319831681179093556040519116919082907f8be0079c531659141344cd1fd0a4f28419497f9722a3daafe3b4186f6b6457e090600090a35050565b6001600160a01b0384166105325760405163e602df0560e01b81526000600482015260240161034e565b6001600160a01b03831661055c57604051634a1406b160e11b81526000600482015260240161034e565b6001600160a01b03808516600090815260016020908152604080832093871683529290522082905580156103ee57826001600160a01b0316846001600160a01b03167f8c5be1e5ebec7d5bd14f71427d1e84f3dd0314c0f7b2291e5b200ac8c7c3b925846040516105cf91815260200190565b60405180910390a350505050565b6001600160a01b0383166106085780600260008282546105fd9190610867565b9091555061067a9050565b6001600160a01b0383166000908152602081905260409020548181101561065b5760405163391434e360e21b81526001600160a01b0385166004820152602481018290526044810183905260640161034e565b6001600160a01b03841660009081526020819052604090209082900390555b6001600160a01b038216610696576002805482900390556106b5565b6001600160a01b03821660009081526020819052604090208054820190555b816001600160a01b0316836001600160a01b03167fddf252ad1be2c89b69c2b068fc378daa952ba7f163c4a11628f55a4df523b3ef836040516106fa91815260200190565b60405180910390a3505050565b60006020808352835180602085015260005b8181101561073557858101830151858201604001528201610719565b506000604082860101526040601f19601f8301168501019250505092915050565b80356001600160a01b038116811461076d57600080fd5b919050565b6000806040838503121561078557600080fd5b61078e83610756565b946020939093013593505050565b6000806000606084860312156107b157600080fd5b6107ba84610756565b92506107c860208501610756565b9150604084013590509250925092565b6000602082840312156107ea57600080fd5b6107f382610756565b9392505050565b6000806040838503121561080d57600080fd5b61081683610756565b915061082460208401610756565b90509250929050565b600181811c9082168061084157607f821691505b60208210810361086157634e487b7160e01b600052602260045260246000fd5b50919050565b808201808211156102b757634e487b7160e01b600052601160045260246000fdfea2646970667358221220c90294dfe8cd8479918665822246d9f41cb587d4d5562e7e3a4115ecc524d2cc64736f6c6343000819003345544820726571756972656420666f722070757263686173696e672020746f6b656e7320697320a2646970667358221220732bac4977a66ae6e152929544f4d815435d07a53e4fa73e5d45ad83847db69464736f6c63430008190033",
  "linkReferences": {},
  "deployedLinkReferences": {}
}