{
  "_format": "hh-sol-artifact-1",
  "contractName": "MockERC20",
  "sourceName": "contracts/mocks/MockERC20.sol",
  "abi": [
    {
      "inputs": [
        {
          "internalType": "address",
          "name": "initialOwner",
          "type": "address"
        }
      ],
      "stateMutability": "nonpayable",
      "type": "constructor"
    },
    {
      "inputs": [],
      "name": "ECDSAInvalidSignature",
      "type": "error"
    },
    {
      "inputs": [
        {
          "internalType": "uint256",
          "name": "length",
          "type": "uint256"
        }
      ],
      "name": "ECDSAInvalidSignatureLength",
      "type": "error"
    },
    {
      "inputs": [
        {
          "internalType": "bytes32",
          "name": "s",
          "type": "bytes32"
        }
      ],
      "name": "ECDSAInvalidSignatureS",
      "type": "error"
    },
    {
      "inputs": [
        {
          "internalType": "address",
          "name": "spender",
          "type": "address"
        },
        {
          "internalType": "uint256",
          "name": "allowance",
          "type": "uint256"
        },
        {
          "internalType": "uint256",
          "name": "needed",
          "type": "uint256"
        }
      ],
      "name": "ERC20InsufficientAllowance",
      "type": "error"
    },
    {
      "inputs": [
        {
          "internalType": "address",
          "name": "sender",
          "type": "address"
        },
        {
          "internalType": "uint256",
          "name": "balance",
          "type": "uint256"
        },
        {
          "internalType": "uint256",
          "name": "needed",
          "type": "uint256"
        }
      ],
      "name": "ERC20InsufficientBalance",
      "type": "error"
    },
    {
      "inputs": [
        {
          "internalType": "address",
          "name": "approver",
          "type": "address"
        }
      ],
      "name": "ERC20InvalidApprover",
      "type": "error"
    },
    {
      "inputs": [
        {
          "internalType": "address",
          "name": "receiver",
          "type": "address"
        }
      ],
      "name": "ERC20InvalidReceiver",
      "type": "error"
    },
    {
      "inputs": [
        {
          "internalType": "address",
          "name": "sender",
          "type": "address"
        }
      ],
      "name": "ERC20InvalidSender",
      "type": "error"
    },
    {
      "inputs": [
        {
          "internalType": "address",
          "name": "spender",
          "type": "address"
        }
      ],
      "name": "ERC20InvalidSpender",
      "type": "error"
    },
    {
      "inputs": [
        {
          "internalType": "uint256",
          "name": "deadline",
          "type": "uint256"
        }
      ],
      "name": "ERC2612ExpiredSignature",
      "type": "error"
    },
    {
      "inputs": [
        {
          "internalType": "address",
          "name": "signer",
          "type": "address"
        },
        {
          "internalType": "address",
          "name": "owner",
          "type": "address"
        }
      ],
      "name": "ERC2612InvalidSigner",
      "type": "error"
    },
    {
      "inputs": [
        {
          "internalType": "uint256",
          "name": "maxLoan",
          "type": "uint256"
        }
      ],
      "name": "ERC3156ExceededMaxLoan",
      "type": "error"
    },
    {
      "inputs": [
        {
          "internalType": "address",
          "name": "receiver",
          "type": "address"
        }
      ],
      "name": "ERC3156InvalidReceiver",
      "type": "error"
    },
    {
      "inputs": [
        {
          "internalType": "address",
          "name": "token",
          "type": "address"
        }
      ],
      "name": "ERC3156UnsupportedToken",
      "type": "error"
    },
    {
      "inputs": [],
      "name": "EnforcedPause",
      "type": "error"
    },
    {
      "inputs": [],
      "name": "ExpectedPause",
      "type": "error"
    },
    {
      "inputs": [
        {
          "internalType": "address",
          "name": "account",
          "type": "address"
        },
        {
          "internalType": "uint256",
          "name": "currentNonce",
          "type": "uint256"
        }
      ],
      "name": "InvalidAccountNonce",
      "type": "error"
    },
    {
      "inputs": [],
      "name": "InvalidShortString",
      "type": "error"
    },
    {
      "inputs": [
        {
          "internalType": "address",
          "name": "owner",
          "type": "address"
        }
      ],
      "name": "OwnableInvalidOwner",
      "type": "error"
    },
    {
      "inputs": [
        {
          "internalType": "address",
          "name": "account",
          "type": "address"
        }
      ],
      "name": "OwnableUnauthorizedAccount",
      "type": "error"
    },
    {
      "inputs": [
        {
          "internalType": "string",
          "name": "str",
          "type": "string"
        }
      ],
      "name": "StringTooLong",
      "type": "error"
    },
    {
      "anonymous": false,
      "inputs": [
        {
          "indexed": true,
          "internalType": "address",
          "name": "owner",
          "type": "address"
        },
        {
          "indexed": true,
          "internalType": "address",
          "name": "spender",
          "type": "address"
        },
        {
          "indexed": false,
          "internalType": "uint256",
          "name": "value",
          "type": "uint256"
        }
      ],
      "name": "Approval",
      "type": "event"
    },
    {
      "anonymous": false,
      "inputs": [],
      "name": "EIP712DomainChanged",
      "type": "event"
    },
    {
      "anonymous": false,
      "inputs": [
        {
          "indexed": true,
          "internalType": "address",
          "name": "previousOwner",
          "type": "address"
        },
        {
          "indexed": true,
          "internalType": "address",
          "name": "newOwner",
          "type": "address"
        }
      ],
      "name": "OwnershipTransferred",
      "type": "event"
    },
    {
      "anonymous": false,
      "inputs": [
        {
          "indexed": false,
          "internalType": "address",
          "name": "account",
          "type": "address"
        }
      ],
      "name": "Paused",
      "type": "event"
    },
    {
      "anonymous": false,
      "inputs": [
        {
          "indexed": true,
          "internalType": "address",
          "name": "from",
          "type": "address"
        },
        {
          "indexed": true,
          "internalType": "address",
          "name": "to",
          "type": "address"
        },
        {
          "indexed": false,
          "internalType": "uint256",
          "name": "value",
          "type": "uint256"
        }
      ],
      "name": "Transfer",
      "type": "event"
    },
    {
      "anonymous": false,
      "inputs": [
        {
          "indexed": false,
          "internalType": "address",
          "name": "account",
          "type": "address"
        }
      ],
      "name": "Unpaused",
      "type": "event"
    },
    {
      "inputs": [],
      "name": "DOMAIN_SEPARATOR",
      "outputs": [
        {
          "internalType": "bytes32",
          "name": "",
          "type": "bytes32"
        }
      ],
      "stateMutability": "view",
      "type": "function"
    },
    {
      "inputs": [
        {
          "internalType": "address",
          "name": "owner",
          "type": "address"
        },
        {
          "internalType": "address",
          "name": "spender",
          "type": "address"
        }
      ],
      "name": "allowance",
      "outputs": [
        {
          "internalType": "uint256",
          "name": "",
          "type": "uint256"
        }
      ],
      "stateMutability": "view",
      "type": "function"
    },
    {
      "inputs": [
        {
          "internalType": "address",
          "name": "spender",
          "type": "address"
        },
        {
          "internalType": "uint256",
          "name": "value",
          "type": "uint256"
        }
      ],
      "name": "approve",
      "outputs": [
        {
          "internalType": "bool",
          "name": "",
          "type": "bool"
        }
      ],
      "stateMutability": "nonpayable",
      "type": "function"
    },
    {
      "inputs": [
        {
          "internalType": "address",
          "name": "account",
          "type": "address"
        }
      ],
      "name": "balanceOf",
      "outputs": [
        {
          "internalType": "uint256",
          "name": "",
          "type": "uint256"
        }
      ],
      "stateMutability": "view",
      "type": "function"
    },
    {
      "inputs": [
        {
          "internalType": "uint256",
          "name": "value",
          "type": "uint256"
        }
      ],
      "name": "burn",
      "outputs": [],
      "stateMutability": "nonpayable",
      "type": "function"
    },
    {
      "inputs": [
        {
          "internalType": "address",
          "name": "account",
          "type": "address"
        },
        {
          "internalType": "uint256",
          "name": "value",
          "type": "uint256"
        }
      ],
      "name": "burnFrom",
      "outputs": [],
      "stateMutability": "nonpayable",
      "type": "function"
    },
    {
      "inputs": [],
      "name": "decimals",
      "outputs": [
        {
          "internalType": "uint8",
          "name": "",
          "type": "uint8"
        }
      ],
      "stateMutability": "view",
      "type": "function"
    },
    {
      "inputs": [],
      "name": "eip712Domain",
      "outputs": [
        {
          "internalType": "bytes1",
          "name": "fields",
          "type": "bytes1"
        },
        {
          "internalType": "string",
          "name": "name",
          "type": "string"
        },
        {
          "internalType": "string",
          "name": "version",
          "type": "string"
        },
        {
          "internalType": "uint256",
          "name": "chainId",
          "type": "uint256"
        },
        {
          "internalType": "address",
          "name": "verifyingContract",
          "type": "address"
        },
        {
          "internalType": "bytes32",
          "name": "salt",
          "type": "bytes32"
        },
        {
          "internalType": "uint256[]",
          "name": "extensions",
          "type": "uint256[]"
        }
      ],
      "stateMutability": "view",
      "type": "function"
    },
    {
      "inputs": [
        {
          "internalType": "address",
          "name": "token",
          "type": "address"
        },
        {
          "internalType": "uint256",
          "name": "value",
          "type": "uint256"
        }
      ],
      "name": "flashFee",
      "outputs": [
        {
          "internalType": "uint256",
          "name": "",
          "type": "uint256"
        }
      ],
      "stateMutability": "view",
      "type": "function"
    },
    {
      "inputs": [
        {
          "internalType": "contract IERC3156FlashBorrower",
          "name": "receiver",
          "type": "address"
        },
        {
          "internalType": "address",
          "name": "token",
          "type": "address"
        },
        {
          "internalType": "uint256",
          "name": "value",
          "type": "uint256"
        },
        {
          "internalType": "bytes",
          "name": "data",
          "type": "bytes"
        }
      ],
      "name": "flashLoan",
      "outputs": [
        {
          "internalType": "bool",
          "name": "",
          "type": "bool"
        }
      ],
      "stateMutability": "nonpayable",
      "type": "function"
    },
    {
      "inputs": [
        {
          "internalType": "address",
          "name": "token",
          "type": "address"
        }
      ],
      "name": "maxFlashLoan",
      "outputs": [
        {
          "internalType": "uint256",
          "name": "",
          "type": "uint256"
        }
      ],
      "stateMutability": "view",
      "type": "function"
    },
    {
      "inputs": [
        {
          "internalType": "address",
          "name": "to",
          "type": "address"
        },
        {
          "internalType": "uint256",
          "name": "amount",
          "type": "uint256"
        }
      ],
      "name": "mint",
      "outputs": [],
      "stateMutability": "nonpayable",
      "type": "function"
    },
    {
      "inputs": [],
      "name": "name",
      "outputs": [
        {
          "internalType": "string",
          "name": "",
          "type": "string"
        }
      ],
      "stateMutability": "view",
      "type": "function"
    },
    {
      "inputs": [
        {
          "internalType": "address",
          "name": "owner",
          "type": "address"
        }
      ],
      "name": "nonces",
      "outputs": [
        {
          "internalType": "uint256",
          "name": "",
          "type": "uint256"
        }
      ],
      "stateMutability": "view",
      "type": "function"
    },
    {
      "inputs": [],
      "name": "owner",
      "outputs": [
        {
          "internalType": "address",
          "name": "",
          "type": "address"
        }
      ],
      "stateMutability": "view",
      "type": "function"
    },
    {
      "inputs": [],
      "name": "pause",
      "outputs": [],
      "stateMutability": "nonpayable",
      "type": "function"
    },
    {
      "inputs": [],
      "name": "paused",
      "outputs": [
        {
          "internalType": "bool",
          "name": "",
          "type": "bool"
        }
      ],
      "stateMutability": "view",
      "type": "function"
    },
    {
      "inputs": [
        {
          "internalType": "address",
          "name": "owner",
          "type": "address"
        },
        {
          "internalType": "address",
          "name": "spender",
          "type": "address"
        },
        {
          "internalType": "uint256",
          "name": "value",
          "type": "uint256"
        },
        {
          "internalType": "uint256",
          "name": "deadline",
          "type": "uint256"
        },
        {
          "internalType": "uint8",
          "name": "v",
          "type": "uint8"
        },
        {
          "internalType": "bytes32",
          "name": "r",
          "type": "bytes32"
        },
        {
          "internalType": "bytes32",
          "name": "s",
          "type": "bytes32"
        }
      ],
      "name": "permit",
      "outputs": [],
      "stateMutability": "nonpayable",
      "type": "function"
    },
    {
      "inputs": [],
      "name": "renounceOwnership",
      "outputs": [],
      "stateMutability": "nonpayable",
      "type": "function"
    },
    {
      "inputs": [],
      "name": "symbol",
      "outputs": [
        {
          "internalType": "string",
          "name": "",
          "type": "string"
        }
      ],
      "stateMutability": "view",
      "type": "function"
    },
    {
      "inputs": [],
      "name": "totalSupply",
      "outputs": [
        {
          "internalType": "uint256",
          "name": "",
          "type": "uint256"
        }
      ],
      "stateMutability": "view",
      "type": "function"
    },
    {
      "inputs": [
        {
          "internalType": "address",
          "name": "to",
          "type": "address"
        },
        {
          "internalType": "uint256",
          "name": "value",
          "type": "uint256"
        }
      ],
      "name": "transfer",
      "outputs": [
        {
          "internalType": "bool",
          "name": "",
          "type": "bool"
        }
      ],
      "stateMutability": "nonpayable",
      "type": "function"
    },
    {
      "inputs": [
        {
          "internalType": "address",
          "name": "from",
          "type": "address"
        },
        {
          "internalType": "address",
          "name": "to",
          "type": "address"
        },
        {
          "internalType": "uint256",
          "name": "value",
          "type": "uint256"
        }
      ],
      "name": "transferFrom",
      "outputs": [
        {
          "internalType": "bool",
          "name": "",
          "type": "bool"
        }
      ],
      "stateMutability": "nonpayable",
      "type": "function"
    },
    {
      "inputs": [
        {
          "internalType": "address",
          "name": "newOwner",
          "type": "address"
        }
      ],
      "name": "transferOwnership",
      "outputs": [],
      "stateMutability": "nonpayable",
      "type": "function"
    },
    {
      "inputs": [],
      "name": "unpause",
      "outputs": [],
      "stateMutability": "nonpayable",
      "type": "function"
    }
  ],
  "bytecode": "0x61016060405234801561001157600080fd5b506040516138f73803806138f783398181016040528101906100339190610849565b6040518060400160405280600981526020017f4d6f636b45524332300000000000000000000000000000000000000000000000815250806040518060400160405280600181526020017f3100000000000000000000000000000000000000000000000000000000000000815250836040518060400160405280600981526020017f4d6f636b455243323000000000000000000000000000000000000000000000008152506040518060400160405280600381526020017f4d43540000000000000000000000000000000000000000000000000000000000815250816003908161011c9190610ac6565b50806004908161012c9190610ac6565b5050506000600560006101000a81548160ff021916908315150217905550600073ffffffffffffffffffffffffffffffffffffffff168173ffffffffffffffffffffffffffffffffffffffff16036101bc5760006040517f1e4fbdf70000000000000000000000000000000000000000000000000000000081526004016101b39190610ba7565b60405180910390fd5b6101cb816102b560201b60201c565b506101e060068361037b60201b90919060201c565b61012081815250506101fc60078261037b60201b90919060201c565b6101408181525050818051906020012060e08181525050808051906020012061010081815250504660a081815250506102396103cb60201b60201c565b608081815250503073ffffffffffffffffffffffffffffffffffffffff1660c08173ffffffffffffffffffffffffffffffffffffffff16815250505050506102af3361028961042660201b60201c565b600a6102959190610d31565b6301406f406102a49190610d7c565b61042f60201b60201c565b50610ffd565b6000600560019054906101000a900473ffffffffffffffffffffffffffffffffffffffff16905081600560016101000a81548173ffffffffffffffffffffffffffffffffffffffff021916908373ffffffffffffffffffffffffffffffffffffffff1602179055508173ffffffffffffffffffffffffffffffffffffffff168173ffffffffffffffffffffffffffffffffffffffff167f8be0079c531659141344cd1fd0a4f28419497f9722a3daafe3b4186f6b6457e060405160405180910390a35050565b600060208351101561039d57610396836104b760201b60201c565b90506103c5565b826103ad8361051f60201b60201c565b60000190816103bc9190610ac6565b5060ff60001b90505b92915050565b60007f8b73c3c69bb8fe3d512ecc4cf759cc79239f7b179b0ffacaa9a75d522b39400f60e05161010051463060405160200161040b959493929190610de6565b60405160208183030381529060405280519060200120905090565b60006012905090565b600073ffffffffffffffffffffffffffffffffffffffff168273ffffffffffffffffffffffffffffffffffffffff16036104a15760006040517fec442f050000000000000000000000000000000000000000000000000000000081526004016104989190610ba7565b60405180910390fd5b6104b36000838361052960201b60201c565b5050565b600080829050601f8151111561050457826040517f305a27a90000000000000000000000000000000000000000000000000000000081526004016104fb9190610ebe565b60405180910390fd5b80518161051090610f10565b60001c1760001b915050919050565b6000819050919050565b61053a83838361053f60201b60201c565b505050565b61054d61056360201b60201c565b61055e8383836105aa60201b60201c565b505050565b6105716107cf60201b60201c565b156105a8576040517fd93c066500000000000000000000000000000000000000000000000000000000815260040160405180910390fd5b565b600073ffffffffffffffffffffffffffffffffffffffff168373ffffffffffffffffffffffffffffffffffffffff16036105fc5780600260008282546105f09190610f77565b925050819055506106cf565b60008060008573ffffffffffffffffffffffffffffffffffffffff1673ffffffffffffffffffffffffffffffffffffffff16815260200190815260200160002054905081811015610688578381836040517fe450d38c00000000000000000000000000000000000000000000000000000000815260040161067f93929190610fab565b60405180910390fd5b8181036000808673ffffffffffffffffffffffffffffffffffffffff1673ffffffffffffffffffffffffffffffffffffffff16815260200190815260200160002081905550505b600073ffffffffffffffffffffffffffffffffffffffff168273ffffffffffffffffffffffffffffffffffffffff16036107185780600260008282540392505081905550610765565b806000808473ffffffffffffffffffffffffffffffffffffffff1673ffffffffffffffffffffffffffffffffffffffff168152602001908152602001600020600082825401925050819055505b8173ffffffffffffffffffffffffffffffffffffffff168373ffffffffffffffffffffffffffffffffffffffff167fddf252ad1be2c89b69c2b068fc378daa952ba7f163c4a11628f55a4df523b3ef836040516107c29190610fe2565b60405180910390a3505050565b6000600560009054906101000a900460ff16905090565b600080fd5b600073ffffffffffffffffffffffffffffffffffffffff82169050919050565b6000610816826107eb565b9050919050565b6108268161080b565b811461083157600080fd5b50565b6000815190506108438161081d565b92915050565b60006020828403121561085f5761085e6107e6565b5b600061086d84828501610834565b91505092915050565b600081519050919050565b7f4e487b7100000000000000000000000000000000000000000000000000000000600052604160045260246000fd5b7f4e487b7100000000000000000000000000000000000000000000000000000000600052602260045260246000fd5b600060028204905060018216806108f757607f821691505b60208210810361090a576109096108b0565b5b50919050565b60008190508160005260206000209050919050565b60006020601f8301049050919050565b600082821b905092915050565b6000600883026109727fffffffffffffffffffffffffffffffffffffffffffffffffffffffffffffffff82610935565b61097c8683610935565b95508019841693508086168417925050509392505050565b6000819050919050565b6000819050919050565b60006109c36109be6109b984610994565b61099e565b610994565b9050919050565b6000819050919050565b6109dd836109a8565b6109f16109e9826109ca565b848454610942565b825550505050565b600090565b610a066109f9565b610a118184846109d4565b505050565b5b81811015610a3557610a2a6000826109fe565b600181019050610a17565b5050565b601f821115610a7a57610a4b81610910565b610a5484610925565b81016020851015610a63578190505b610a77610a6f85610925565b830182610a16565b50505b505050565b600082821c905092915050565b6000610a9d60001984600802610a7f565b1980831691505092915050565b6000610ab68383610a8c565b9150826002028217905092915050565b610acf82610876565b67ffffffffffffffff811115610ae857610ae7610881565b5b610af282546108df565b610afd828285610a39565b600060209050601f831160018114610b305760008415610b1e578287015190505b610b288582610aaa565b865550610b90565b601f198416610b3e86610910565b60005b82811015610b6657848901518255600182019150602085019450602081019050610b41565b86831015610b835784890151610b7f601f891682610a8c565b8355505b6001600288020188555050505b505050505050565b610ba18161080b565b82525050565b6000602082019050610bbc6000830184610b98565b92915050565b7f4e487b7100000000000000000000000000000000000000000000000000000000600052601160045260246000fd5b60008160011c9050919050565b6000808291508390505b6001851115610c4857808604811115610c2457610c23610bc2565b5b6001851615610c335780820291505b8081029050610c4185610bf1565b9450610c08565b94509492505050565b600082610c615760019050610d1d565b81610c6f5760009050610d1d565b8160018114610c855760028114610c8f57610cbe565b6001915050610d1d565b60ff841115610ca157610ca0610bc2565b5b8360020a915084821115610cb857610cb7610bc2565b5b50610d1d565b5060208310610133831016604e8410600b8410161715610cf35782820a905083811115610cee57610ced610bc2565b5b610d1d565b610d008484846001610bfe565b92509050818404811115610d1757610d16610bc2565b5b81810290505b9392505050565b600060ff82169050919050565b6000610d3c82610994565b9150610d4783610d24565b9250610d747fffffffffffffffffffffffffffffffffffffffffffffffffffffffffffffffff8484610c51565b905092915050565b6000610d8782610994565b9150610d9283610994565b9250828202610da081610994565b91508282048414831517610db757610db6610bc2565b5b5092915050565b6000819050919050565b610dd181610dbe565b82525050565b610de081610994565b82525050565b600060a082019050610dfb6000830188610dc8565b610e086020830187610dc8565b610e156040830186610dc8565b610e226060830185610dd7565b610e2f6080830184610b98565b9695505050505050565b600082825260208201905092915050565b60005b83811015610e68578082015181840152602081019050610e4d565b60008484015250505050565b6000601f19601f8301169050919050565b6000610e9082610876565b610e9a8185610e39565b9350610eaa818560208601610e4a565b610eb381610e74565b840191505092915050565b60006020820190508181036000830152610ed88184610e85565b905092915050565b600081519050919050565b6000819050602082019050919050565b6000610f078251610dbe565b80915050919050565b6000610f1b82610ee0565b82610f2584610eeb565b9050610f3081610efb565b92506020821015610f7057610f6b7fffffffffffffffffffffffffffffffffffffffffffffffffffffffffffffffff83602003600802610935565b831692505b5050919050565b6000610f8282610994565b9150610f8d83610994565b9250828201905080821115610fa557610fa4610bc2565b5b92915050565b6000606082019050610fc06000830186610b98565b610fcd6020830185610dd7565b610fda6040830184610dd7565b949350505050565b6000602082019050610ff76000830184610dd7565b92915050565b60805160a05160c05160e0516101005161012051610140516128a0611057600039600061139a0152600061135f015260006116a20152600061168101526000610f3e01526000610f9401526000610fbd01526128a06000f3fe608060405234801561001057600080fd5b50600436106101735760003560e01c806370a08231116100de5780638da5cb5b11610097578063d505accf11610071578063d505accf14610430578063d9d98ce41461044c578063dd62ed3e1461047c578063f2fde38b146104ac57610173565b80638da5cb5b146103c457806395d89b41146103e2578063a9059cbb1461040057610173565b806370a0823114610310578063715018a61461034057806379cc67901461034a5780637ecebe00146103665780638456cb591461039657806384b0196e146103a057610173565b80633f4ba83a116101305780633f4ba83a1461025057806340c10f191461025a57806342966c68146102765780635c975abb146102925780635cffe9de146102b0578063613255ab146102e057610173565b806306fdde0314610178578063095ea7b31461019657806318160ddd146101c657806323b872dd146101e4578063313ce567146102145780633644e51514610232575b600080fd5b6101806104c8565b60405161018d9190611e4d565b60405180910390f35b6101b060048036038101906101ab9190611f0d565b61055a565b6040516101bd9190611f68565b60405180910390f35b6101ce61057d565b6040516101db9190611f92565b60405180910390f35b6101fe60048036038101906101f99190611fad565b610587565b60405161020b9190611f68565b60405180910390f35b61021c6105b6565b604051610229919061201c565b60405180910390f35b61023a6105bf565b6040516102479190612050565b60405180910390f35b6102586105ce565b005b610274600480360381019061026f9190611f0d565b6105e0565b005b610290600480360381019061028b919061206b565b6105f6565b005b61029a61060a565b6040516102a79190611f68565b60405180910390f35b6102ca60048036038101906102c5919061213b565b610621565b6040516102d79190611f68565b60405180910390f35b6102fa60048036038101906102f591906121c3565b61081e565b6040516103079190611f92565b60405180910390f35b61032a600480360381019061032591906121c3565b610895565b6040516103379190611f92565b60405180910390f35b6103486108dd565b005b610364600480360381019061035f9190611f0d565b6108f1565b005b610380600480360381019061037b91906121c3565b610911565b60405161038d9190611f92565b60405180910390f35b61039e610923565b005b6103a8610935565b6040516103bb97969594939291906122f8565b60405180910390f35b6103cc6109df565b6040516103d9919061237c565b60405180910390f35b6103ea610a09565b6040516103f79190611e4d565b60405180910390f35b61041a60048036038101906104159190611f0d565b610a9b565b6040516104279190611f68565b60405180910390f35b61044a600480360381019061044591906123ef565b610abe565b005b61046660048036038101906104619190611f0d565b610c06565b6040516104739190611f92565b60405180910390f35b61049660048036038101906104919190612491565b610c8a565b6040516104a39190611f92565b60405180910390f35b6104c660048036038101906104c191906121c3565b610d11565b005b6060600380546104d790612500565b80601f016020809104026020016040519081016040528092919081815260200182805461050390612500565b80156105505780601f1061052557610100808354040283529160200191610550565b820191906000526020600020905b81548152906001019060200180831161053357829003601f168201915b5050505050905090565b600080610565610d97565b9050610572818585610d9f565b600191505092915050565b6000600254905090565b600080610592610d97565b905061059f858285610db1565b6105aa858585610e46565b60019150509392505050565b60006012905090565b60006105c9610f3a565b905090565b6105d6610ff1565b6105de611078565b565b6105e8610ff1565b6105f282826110db565b5050565b610607610601610d97565b8261115d565b50565b6000600560009054906101000a900460ff16905090565b60008061062d8661081e565b90508085111561067457806040517ffd9a760900000000000000000000000000000000000000000000000000000000815260040161066b9190611f92565b60405180910390fd5b60006106808787610c06565b905061068c88876110db565b7f439148f0bbc682ca079e46d6e2c2f0c1e3b820f1a291b069d8882abf8cf18dd98873ffffffffffffffffffffffffffffffffffffffff166323e30c8b6106d1610d97565b8a8a868b8b6040518763ffffffff1660e01b81526004016106f79695949392919061257e565b6020604051808303816000875af1158015610716573d6000803e3d6000fd5b505050506040513d601f19601f8201168201806040525081019061073a91906125ef565b1461077c57876040517f678c5b00000000000000000000000000000000000000000000000000000000008152600401610773919061237c565b60405180910390fd5b60006107866111df565b905061079e8930848a610799919061264b565b610db1565b60008214806107d95750600073ffffffffffffffffffffffffffffffffffffffff168173ffffffffffffffffffffffffffffffffffffffff16145b156107f8576107f38983896107ee919061264b565b61115d565b61080e565b610802898861115d565b61080d898284610e46565b5b6001935050505095945050505050565b60003073ffffffffffffffffffffffffffffffffffffffff168273ffffffffffffffffffffffffffffffffffffffff161461085a57600061088e565b61086261057d565b7fffffffffffffffffffffffffffffffffffffffffffffffffffffffffffffffff61088d919061267f565b5b9050919050565b60008060008373ffffffffffffffffffffffffffffffffffffffff1673ffffffffffffffffffffffffffffffffffffffff168152602001908152602001600020549050919050565b6108e5610ff1565b6108ef60006111e4565b565b610903826108fd610d97565b83610db1565b61090d828261115d565b5050565b600061091c826112aa565b9050919050565b61092b610ff1565b6109336112f3565b565b600060608060008060006060610949611356565b610951611391565b46306000801b600067ffffffffffffffff811115610972576109716126b3565b5b6040519080825280602002602001820160405280156109a05781602001602082028036833780820191505090505b507f0f00000000000000000000000000000000000000000000000000000000000000959493929190965096509650965096509650965090919293949596565b6000600560019054906101000a900473ffffffffffffffffffffffffffffffffffffffff16905090565b606060048054610a1890612500565b80601f0160208091040260200160405190810160405280929190818152602001828054610a4490612500565b8015610a915780601f10610a6657610100808354040283529160200191610a91565b820191906000526020600020905b815481529060010190602001808311610a7457829003601f168201915b5050505050905090565b600080610aa6610d97565b9050610ab3818585610e46565b600191505092915050565b83421115610b0357836040517f62791302000000000000000000000000000000000000000000000000000000008152600401610afa9190611f92565b60405180910390fd5b60007f6e71edae12b1b97f4d1f60370fef10105fa2faae0126114a169c64845d6126c9888888610b328c6113cc565b89604051602001610b48969594939291906126e2565b6040516020818303038152906040528051906020012090506000610b6b82611423565b90506000610b7b8287878761143d565b90508973ffffffffffffffffffffffffffffffffffffffff168173ffffffffffffffffffffffffffffffffffffffff1614610bef57808a6040517f4b800e46000000000000000000000000000000000000000000000000000000008152600401610be6929190612743565b60405180910390fd5b610bfa8a8a8a610d9f565b50505050505050505050565b60003073ffffffffffffffffffffffffffffffffffffffff168373ffffffffffffffffffffffffffffffffffffffff1614610c7857826040517fb5a7db92000000000000000000000000000000000000000000000000000000008152600401610c6f919061237c565b60405180910390fd5b610c82838361146d565b905092915050565b6000600160008473ffffffffffffffffffffffffffffffffffffffff1673ffffffffffffffffffffffffffffffffffffffff16815260200190815260200160002060008373ffffffffffffffffffffffffffffffffffffffff1673ffffffffffffffffffffffffffffffffffffffff16815260200190815260200160002054905092915050565b610d19610ff1565b600073ffffffffffffffffffffffffffffffffffffffff168173ffffffffffffffffffffffffffffffffffffffff1603610d8b5760006040517f1e4fbdf7000000000000000000000000000000000000000000000000000000008152600401610d82919061237c565b60405180910390fd5b610d94816111e4565b50565b600033905090565b610dac8383836001611475565b505050565b6000610dbd8484610c8a565b90507fffffffffffffffffffffffffffffffffffffffffffffffffffffffffffffffff811015610e405781811015610e30578281836040517ffb8f41b2000000000000000000000000000000000000000000000000000000008152600401610e279392919061276c565b60405180910390fd5b610e3f84848484036000611475565b5b50505050565b600073ffffffffffffffffffffffffffffffffffffffff168373ffffffffffffffffffffffffffffffffffffffff1603610eb85760006040517f96c6fd1e000000000000000000000000000000000000000000000000000000008152600401610eaf919061237c565b60405180910390fd5b600073ffffffffffffffffffffffffffffffffffffffff168273ffffffffffffffffffffffffffffffffffffffff1603610f2a5760006040517fec442f05000000000000000000000000000000000000000000000000000000008152600401610f21919061237c565b60405180910390fd5b610f3583838361164c565b505050565b60007f000000000000000000000000000000000000000000000000000000000000000073ffffffffffffffffffffffffffffffffffffffff163073ffffffffffffffffffffffffffffffffffffffff16148015610fb657507f000000000000000000000000000000000000000000000000000000000000000046145b15610fe3577f00000000000000000000000000000000000000000000000000000000000000009050610fee565b610feb61165c565b90505b90565b610ff9610d97565b73ffffffffffffffffffffffffffffffffffffffff166110176109df565b73ffffffffffffffffffffffffffffffffffffffff16146110765761103a610d97565b6040517f118cdaa700000000000000000000000000000000000000000000000000000000815260040161106d919061237c565b60405180910390fd5b565b6110806116f2565b6000600560006101000a81548160ff0219169083151502179055507f5db9ee0a495bf2e6ff9c91a7834c1ba4fdd244a5e8aa4e537bd38aeae4b073aa6110c4610d97565b6040516110d1919061237c565b60405180910390a1565b600073ffffffffffffffffffffffffffffffffffffffff168273ffffffffffffffffffffffffffffffffffffffff160361114d5760006040517fec442f05000000000000000000000000000000000000000000000000000000008152600401611144919061237c565b60405180910390fd5b6111596000838361164c565b5050565b600073ffffffffffffffffffffffffffffffffffffffff168273ffffffffffffffffffffffffffffffffffffffff16036111cf5760006040517f96c6fd1e0000000000000000000000000000000000000000000000000000000081526004016111c6919061237c565b60405180910390fd5b6111db8260008361164c565b5050565b600090565b6000600560019054906101000a900473ffffffffffffffffffffffffffffffffffffffff16905081600560016101000a81548173ffffffffffffffffffffffffffffffffffffffff021916908373ffffffffffffffffffffffffffffffffffffffff1602179055508173ffffffffffffffffffffffffffffffffffffffff168173ffffffffffffffffffffffffffffffffffffffff167f8be0079c531659141344cd1fd0a4f28419497f9722a3daafe3b4186f6b6457e060405160405180910390a35050565b6000600860008373ffffffffffffffffffffffffffffffffffffffff1673ffffffffffffffffffffffffffffffffffffffff168152602001908152602001600020549050919050565b6112fb611732565b6001600560006101000a81548160ff0219169083151502179055507f62e78cea01bee320cd4e420270b5ea74000d11b0c9f74754ebdbfc544b05a25861133f610d97565b60405161134c919061237c565b60405180910390a1565b606061138c60067f000000000000000000000000000000000000000000000000000000000000000061177390919063ffffffff16565b905090565b60606113c760077f000000000000000000000000000000000000000000000000000000000000000061177390919063ffffffff16565b905090565b6000600860008373ffffffffffffffffffffffffffffffffffffffff1673ffffffffffffffffffffffffffffffffffffffff1681526020019081526020016000206000815480929190600101919050559050919050565b6000611436611430610f3a565b83611823565b9050919050565b60008060008061144f88888888611864565b92509250925061145f8282611958565b829350505050949350505050565b600092915050565b600073ffffffffffffffffffffffffffffffffffffffff168473ffffffffffffffffffffffffffffffffffffffff16036114e75760006040517fe602df050000000000000000000000000000000000000000000000000000000081526004016114de919061237c565b60405180910390fd5b600073ffffffffffffffffffffffffffffffffffffffff168373ffffffffffffffffffffffffffffffffffffffff16036115595760006040517f94280d62000000000000000000000000000000000000000000000000000000008152600401611550919061237c565b60405180910390fd5b81600160008673ffffffffffffffffffffffffffffffffffffffff1673ffffffffffffffffffffffffffffffffffffffff16815260200190815260200160002060008573ffffffffffffffffffffffffffffffffffffffff1673ffffffffffffffffffffffffffffffffffffffff168152602001908152602001600020819055508015611646578273ffffffffffffffffffffffffffffffffffffffff168473ffffffffffffffffffffffffffffffffffffffff167f8c5be1e5ebec7d5bd14f71427d1e84f3dd0314c0f7b2291e5b200ac8c7c3b9258460405161163d9190611f92565b60405180910390a35b50505050565b611657838383611abc565b505050565b60007f8b73c3c69bb8fe3d512ecc4cf759cc79239f7b179b0ffacaa9a75d522b39400f7f00000000000000000000000000000000000000000000000000000000000000007f000000000000000000000000000000000000000000000000000000000000000046306040516020016116d79594939291906127a3565b60405160208183030381529060405280519060200120905090565b6116fa61060a565b611730576040517f8dfc202b00000000000000000000000000000000000000000000000000000000815260040160405180910390fd5b565b61173a61060a565b15611771576040517fd93c066500000000000000000000000000000000000000000000000000000000815260040160405180910390fd5b565b606060ff60001b83146117905761178983611ad4565b905061181d565b81805461179c90612500565b80601f01602080910402602001604051908101604052809291908181526020018280546117c890612500565b80156118155780601f106117ea57610100808354040283529160200191611815565b820191906000526020600020905b8154815290600101906020018083116117f857829003601f168201915b505050505090505b92915050565b60006040517f190100000000000000000000000000000000000000000000000000000000000081528360028201528260228201526042812091505092915050565b60008060007f7fffffffffffffffffffffffffffffff5d576e7357a4501ddfe92f46681b20a08460001c11156118a457600060038592509250925061194e565b6000600188888888604051600081526020016040526040516118c994939291906127f6565b6020604051602081039080840390855afa1580156118eb573d6000803e3d6000fd5b505050602060405103519050600073ffffffffffffffffffffffffffffffffffffffff168173ffffffffffffffffffffffffffffffffffffffff160361193f57600060016000801b9350935093505061194e565b8060008060001b935093509350505b9450945094915050565b6000600381111561196c5761196b61283b565b5b82600381111561197f5761197e61283b565b5b0315611ab857600160038111156119995761199861283b565b5b8260038111156119ac576119ab61283b565b5b036119e3576040517ff645eedf00000000000000000000000000000000000000000000000000000000815260040160405180910390fd5b600260038111156119f7576119f661283b565b5b826003811115611a0a57611a0961283b565b5b03611a4f578060001c6040517ffce698f7000000000000000000000000000000000000000000000000000000008152600401611a469190611f92565b60405180910390fd5b600380811115611a6257611a6161283b565b5b826003811115611a7557611a7461283b565b5b03611ab757806040517fd78bce0c000000000000000000000000000000000000000000000000000000008152600401611aae9190612050565b60405180910390fd5b5b5050565b611ac4611732565b611acf838383611b48565b505050565b60606000611ae183611d6d565b90506000602067ffffffffffffffff811115611b0057611aff6126b3565b5b6040519080825280601f01601f191660200182016040528015611b325781602001600182028036833780820191505090505b5090508181528360208201528092505050919050565b600073ffffffffffffffffffffffffffffffffffffffff168373ffffffffffffffffffffffffffffffffffffffff1603611b9a578060026000828254611b8e919061264b565b92505081905550611c6d565b60008060008573ffffffffffffffffffffffffffffffffffffffff1673ffffffffffffffffffffffffffffffffffffffff16815260200190815260200160002054905081811015611c26578381836040517fe450d38c000000000000000000000000000000000000000000000000000000008152600401611c1d9392919061276c565b60405180910390fd5b8181036000808673ffffffffffffffffffffffffffffffffffffffff1673ffffffffffffffffffffffffffffffffffffffff16815260200190815260200160002081905550505b600073ffffffffffffffffffffffffffffffffffffffff168273ffffffffffffffffffffffffffffffffffffffff1603611cb65780600260008282540392505081905550611d03565b806000808473ffffffffffffffffffffffffffffffffffffffff1673ffffffffffffffffffffffffffffffffffffffff168152602001908152602001600020600082825401925050819055505b8173ffffffffffffffffffffffffffffffffffffffff168373ffffffffffffffffffffffffffffffffffffffff167fddf252ad1be2c89b69c2b068fc378daa952ba7f163c4a11628f55a4df523b3ef83604051611d609190611f92565b60405180910390a3505050565b60008060ff8360001c169050601f811115611db4576040517fb3512b0c00000000000000000000000000000000000000000000000000000000815260040160405180910390fd5b80915050919050565b600081519050919050565b600082825260208201905092915050565b60005b83811015611df7578082015181840152602081019050611ddc565b60008484015250505050565b6000601f19601f8301169050919050565b6000611e1f82611dbd565b611e298185611dc8565b9350611e39818560208601611dd9565b611e4281611e03565b840191505092915050565b60006020820190508181036000830152611e678184611e14565b905092915050565b600080fd5b600080fd5b600073ffffffffffffffffffffffffffffffffffffffff82169050919050565b6000611ea482611e79565b9050919050565b611eb481611e99565b8114611ebf57600080fd5b50565b600081359050611ed181611eab565b92915050565b6000819050919050565b611eea81611ed7565b8114611ef557600080fd5b50565b600081359050611f0781611ee1565b92915050565b60008060408385031215611f2457611f23611e6f565b5b6000611f3285828601611ec2565b9250506020611f4385828601611ef8565b9150509250929050565b60008115159050919050565b611f6281611f4d565b82525050565b6000602082019050611f7d6000830184611f59565b92915050565b611f8c81611ed7565b82525050565b6000602082019050611fa76000830184611f83565b92915050565b600080600060608486031215611fc657611fc5611e6f565b5b6000611fd486828701611ec2565b9350506020611fe586828701611ec2565b9250506040611ff686828701611ef8565b9150509250925092565b600060ff82169050919050565b61201681612000565b82525050565b6000602082019050612031600083018461200d565b92915050565b6000819050919050565b61204a81612037565b82525050565b60006020820190506120656000830184612041565b92915050565b60006020828403121561208157612080611e6f565b5b600061208f84828501611ef8565b91505092915050565b60006120a382611e99565b9050919050565b6120b381612098565b81146120be57600080fd5b50565b6000813590506120d0816120aa565b92915050565b600080fd5b600080fd5b600080fd5b60008083601f8401126120fb576120fa6120d6565b5b8235905067ffffffffffffffff811115612118576121176120db565b5b602083019150836001820283011115612134576121336120e0565b5b9250929050565b60008060008060006080868803121561215757612156611e6f565b5b6000612165888289016120c1565b955050602061217688828901611ec2565b945050604061218788828901611ef8565b935050606086013567ffffffffffffffff8111156121a8576121a7611e74565b5b6121b4888289016120e5565b92509250509295509295909350565b6000602082840312156121d9576121d8611e6f565b5b60006121e784828501611ec2565b91505092915050565b60007fff0000000000000000000000000000000000000000000000000000000000000082169050919050565b612225816121f0565b82525050565b61223481611e99565b82525050565b600081519050919050565b600082825260208201905092915050565b6000819050602082019050919050565b61226f81611ed7565b82525050565b60006122818383612266565b60208301905092915050565b6000602082019050919050565b60006122a58261223a565b6122af8185612245565b93506122ba83612256565b8060005b838110156122eb5781516122d28882612275565b97506122dd8361228d565b9250506001810190506122be565b5085935050505092915050565b600060e08201905061230d600083018a61221c565b818103602083015261231f8189611e14565b905081810360408301526123338188611e14565b90506123426060830187611f83565b61234f608083018661222b565b61235c60a0830185612041565b81810360c083015261236e818461229a565b905098975050505050505050565b6000602082019050612391600083018461222b565b92915050565b6123a081612000565b81146123ab57600080fd5b50565b6000813590506123bd81612397565b92915050565b6123cc81612037565b81146123d757600080fd5b50565b6000813590506123e9816123c3565b92915050565b600080600080600080600060e0888a03121561240e5761240d611e6f565b5b600061241c8a828b01611ec2565b975050602061242d8a828b01611ec2565b965050604061243e8a828b01611ef8565b955050606061244f8a828b01611ef8565b94505060806124608a828b016123ae565b93505060a06124718a828b016123da565b92505060c06124828a828b016123da565b91505092959891949750929550565b600080604083850312156124a8576124a7611e6f565b5b60006124b685828601611ec2565b92505060206124c785828601611ec2565b9150509250929050565b7f4e487b7100000000000000000000000000000000000000000000000000000000600052602260045260246000fd5b6000600282049050600182168061251857607f821691505b60208210810361252b5761252a6124d1565b5b50919050565b600082825260208201905092915050565b82818337600083830152505050565b600061255d8385612531565b935061256a838584612542565b61257383611e03565b840190509392505050565b600060a082019050612593600083018961222b565b6125a0602083018861222b565b6125ad6040830187611f83565b6125ba6060830186611f83565b81810360808301526125cd818486612551565b9050979650505050505050565b6000815190506125e9816123c3565b92915050565b60006020828403121561260557612604611e6f565b5b6000612613848285016125da565b91505092915050565b7f4e487b7100000000000000000000000000000000000000000000000000000000600052601160045260246000fd5b600061265682611ed7565b915061266183611ed7565b92508282019050808211156126795761267861261c565b5b92915050565b600061268a82611ed7565b915061269583611ed7565b92508282039050818111156126ad576126ac61261c565b5b92915050565b7f4e487b7100000000000000000000000000000000000000000000000000000000600052604160045260246000fd5b600060c0820190506126f76000830189612041565b612704602083018861222b565b612711604083018761222b565b61271e6060830186611f83565b61272b6080830185611f83565b61273860a0830184611f83565b979650505050505050565b6000604082019050612758600083018561222b565b612765602083018461222b565b9392505050565b6000606082019050612781600083018661222b565b61278e6020830185611f83565b61279b6040830184611f83565b949350505050565b600060a0820190506127b86000830188612041565b6127c56020830187612041565b6127d26040830186612041565b6127df6060830185611f83565b6127ec608083018461222b565b9695505050505050565b600060808201905061280b6000830187612041565b612818602083018661200d565b6128256040830185612041565b6128326060830184612041565b95945050505050565b7f4e487b7100000000000000000000000000000000000000000000000000000000600052602160045260246000fdfea26469706673582212207a7872bfdaa576336716d19ade0d9959d480d68d6a77de929e27c83c0cb0be4864736f6c63430008190033",
  "linkReferences": {},
  "deployedLinkReferences": {}
}